:100000000C942A000C945F080C948C080C94B9088A
:100010000C9447000C9447000C9447000C940C205F
:100020000C9447000C9447000C94AB060C947E068D
:100030000C9447000C9447000C9447000C94470024
:100040000C9447000C9447000C9447000C94470014
:100050000C94470011241FBECFE5D8E0DEBFCDBF12
:1000600011E0A0E6B0E0ECE9FEE802C005900D92D8
:10007000A432B107D9F717E0A4E2B1E001C01D92A4
:10008000A33BB107E1F70E94EB420C944C470C9460
:100090000000EF92FF920F931F937B018C0120E0F1
:1000A00030E040E05FE40E94490388238CF0C801FF
:1000B000B70120E030E040E05FE40E94C1010E940F
:1000C000A9039B01AC01205030404040504806C07D
:1000D000C801B7010E94A9039B01AC01B901CA0183
:1000E0001F910F91FF90EF900895A0E0B0E0EBE733
:1000F000F0E00C940547DC012B01FA019C91923051
:1001000008F439C1EB018881823008F433C194309E
:1001100069F4843009F02FC111969C91119789815F
:10012000981709F428C1ABEDB0E025C1843009F47B
:1001300021C18230A9F4923009F01DC19A01AD01AC
:1001400088E0EA010990AE01E90109929E0181501F
:10015000C1F7E201898111969C918923818308C1AD
:10016000923009F407C112962D903C901397EB0141
:100170008A819B811496AD90BD90CD90DC901797AD
:10018000EC80FD800E811F819101281B390BB90184
:1001900037FF04C066277727621B730B6032710537
:1001A0000CF061C0121613066CF537014801062EDB
:1001B00004C096948794779467940A94D2F721E0C8
:1001C00030E040E050E004C0220F331F441F551FB1
:1001D0006A95D2F721503040404050402E213F21B7
:1001E00040235123211531054105510521F021E01E
:1001F00030E040E050E079018A01E628F72808293C
:1002000019293CC0232BD1F1260E371E350146019A
:10021000062E04C096948794779467940A94D2F734
:1002200021E030E040E050E004C0220F331F441FC3
:10023000551F6A95D2F721503040404050402A2146
:100240003B214C215D21211531054105510521F04E
:1002500021E030E040E050E059016A01A628B728CB
:10026000C828D9280BC0821593052CF01C01AA249C
:10027000BB24650103C0EE24FF24870111969C91E5
:10028000D20111968C91981709F445C0992339F041
:10029000A80197012A193B094C095D0906C0A6016E
:1002A00095012E193F09400B510B57FD08C01182D3
:1002B0003382228224833583468357831DC081E0A5
:1002C00081833382228288279927DC01821B930B4A
:1002D000A40BB50B84839583A683B7830DC0220F2F
:1002E000331F441F551F24833583468357838281E0
:1002F000938101979383828324813581468157813D
:10030000DA01C9010197A109B1098F5F9F4FAF4F72
:10031000BF4328F30BC0918333822282EA0CFB1C7B
:100320000C1D1D1DE482F5820683178383E0808304
:10033000248135814681578157FF1AC0C901AA27F8
:1003400097FDA095BA2F81709070A070B0705695EF
:10035000479537952795822B932BA42BB52B848318
:100360009583A683B7838281938101969383828349
:10037000DF0101C0D201CD01CDB7DEB7E2E10C94BF
:100380002147A0E2B0E0E7ECF1E00C94114769836B
:100390007A838B839C832D833E834F835887E9E048
:1003A000EE2EF12CEC0EFD1ECE010196B7010E943F
:1003B000D2048E010F5E1F4FCE010596B8010E9438
:1003C000D2048A8991E089278A8BC701B801AE01DE
:1003D000475E5F4F0E9475000E94FD03A096E6E015
:1003E0000C942D47A0E2B0E0E8EFF1E00C94114747
:1003F00069837A838B839C832D833E834F835887C5
:10040000F9E0EF2EF12CEC0EFD1ECE010196B701A6
:100410000E94D2048E010F5E1F4FCE010596B801D7
:100420000E94D204C701B801AE01475E5F4F0E942F
:1004300075000E94FD03A096E6E00C942D47A0E213
:10044000B0E0E5E2F2E00C94054769837A838B83A0
:100450009C832D833E834F835887CE010196BE0136
:10046000675F7F4F0E94D204CE010596BE016F5E8A
:100470007F4F0E94D2049985923088F0898982301A
:10048000C8F0943019F4823051F404C0843029F457
:10049000923081F48BED90E0C6C0923049F420E0B8
:1004A0009A858A89981321E02A87CE010996BBC0D4
:1004B000823049F420E09A858A89981321E02A8BBA
:1004C000CE014196B0C02D843E844F8458886D88FB
:1004D0007E888F88988CEE24FF248701AA24BB2471
:1004E000650140E050E060E070E0E0E0F0E0C10174
:1004F00081709070892BE9F0E60CF71C081D191D1E
:100500009A01AB012A0D3B1D4C1D5D1D80E090E062
:10051000A0E0B0E0E614F7040805190520F481E036
:1005200090E0A0E0B0E0BA01A901480F591F6A1F8E
:100530007B1FAA0CBB1CCC1CDD1C97FE08C081E0F5
:1005400090E0A0E0B0E0A82AB92ACA2ADB2A3196B6
:10055000E032F10549F0660C771C881C991C569412
:10056000479437942794C3CFFA85EA892B893C892D
:100570008B859C85280F391F2E5F3F4F17C0CA01FE
:1005800081709070892B61F016950795F794E79428
:1005900080E090E0A0E0B0E8E82AF92A0A2B1B2BC3
:1005A00076956795579547952F5F3F4F77FDE7CF36
:1005B0000CC0440F551F661F771F17FD4160EE0CDE
:1005C000FF1C001F111F21503040403090E05907A0
:1005D00090E0690790E4790760F32B8F3C8FDB0193
:1005E000CA018F779070A070B07080349105A1051A
:1005F000B10561F447FD0AC0E114F10401051105DC
:1006000029F0405C5F4F6F4F7F4F40781A8EFE1786
:1006100011F081E08A8F4D8F5E8F6F8F78A383E01A
:10062000898FCE0149960E94FD03A096E2E10C94C9
:100630002147A8E1B0E0EFE1F3E00C9411476983B2
:100640007A838B839C832D833E834F83588789E0F5
:10065000E82EF12CEC0EFD1ECE010196B7010E9492
:10066000D2048E010F5E1F4FCE010596B8010E9485
:10067000D2048985823040F08989823028F0C70110
:10068000B8010E944A0501C08FEF6896E6E00C941D
:100690002D47A8E1B0E0EFE4F3E00C941147698343
:1006A0007A838B839C832D833E834F83588789E095
:1006B000E82EF12CEC0EFD1ECE010196B7010E9432
:1006C000D2048E010F5E1F4FCE010596B8010E9425
:1006D000D2048985823040F08989823028F0C701B0
:1006E000B8010E944A0501C08FEF6896E6E00C94BD
:1006F0002D47A8E1B0E0EFE7F3E00C9411476983E0
:100700007A838B839C832D833E834F83588789E034
:10071000E82EF12CEC0EFD1ECE010196B7010E94D1
:10072000D2048E010F5E1F4FCE010596B8010E94C4
:10073000D2048985823040F08989823028F0C7014F
:10074000B8010E944A0501C081E06896E6E00C9479
:100750002D47ACE0B0E0EFEAF3E00C941547698375
:100760007A838B839C83CE010196BE016B5F7F4FA2
:100770000E94D2048D81823061F1823050F1843048
:1007800021F48E81882351F12EC02F81388537FDC9
:1007900020C06E812F3131051CF06623F9F023C093
:1007A0008EE190E0821B930B29853A854B855C8511
:1007B00004C056954795379527958A95D2F76623B5
:1007C000B1F050954095309521953F4F4F4F5F4F79
:1007D0000EC020E030E040E050E009C02FEF3FEFD6
:1007E0004FEF5FE704C020E030E040E050E8B9019F
:1007F000CA012C96E2E00C943147DF92EF92FF920F
:100800000F931F93FC01E480F58006811781D1804E
:100810008081823048F480E090E0A0E1B0E0E82AF6
:10082000F92A0A2B1B2BA5C0843009F49FC0823003
:1008300021F4EE24FF24870105C0E114F104010531
:10084000110519F4E0E0F0E096C0628173819FEF3A
:10085000623879070CF05BC022E83FEF261B370BAC
:100860002A3131052CF020E030E040E050E02AC091
:10087000B801A701022E04C0769567955795479554
:100880000A94D2F781E090E0A0E0B0E004C0880FC5
:10089000991FAA1FBB1F2A95D2F70197A109B10979
:1008A0008E219F21A023B1230097A105B10521F03E
:1008B00081E090E0A0E0B0E09A01AB01282B392B59
:1008C0004A2B5B2BDA01C9018F779070A070B07052
:1008D00080349105A105B10539F427FF09C0205CDA
:1008E0003F4F4F4F5F4F04C0215C3F4F4F4F5F4F13
:1008F000E0E0F0E02030A0E03A07A0E04A07A0E402
:100900005A0710F0E1E0F0E079018A0127C0603871
:10091000710564F5FB01E158FF4FD801C7018F77DE
:100920009070A070B07080349105A105B10539F4C4
:10093000E7FE0DC080E490E0A0E0B0E004C08FE3EB
:1009400090E0A0E0B0E0E80EF91E0A1F1B1F17FFA1
:1009500005C016950795F794E794319687E01695AC
:100960000795F794E7948A95D1F705C0EE24FF2404
:100970008701EFEFF0E06E2F679566276795902F60
:100980009F77D794DD24D7948E2F8695492F462BB9
:10099000582F5D29B701CA011F910F91FF90EF9069
:1009A000DF900895FC01DB01408151812281622F9B
:1009B0006F7770E0221F2227221F9381892F880FD3
:1009C000822B282F30E0991F9927991F11969C930D
:1009D000119721153105A9F54115510561057105DD
:1009E00011F482E037C082E89FEF13969C938E93B8
:1009F00012979A01AB0167E0220F331F441F551F66
:100A00006A95D1F783E08C930DC0220F331F441FEA
:100A1000551F12968D919C911397019713969C9355
:100A20008E931297203080E0380780E0480780E4FA
:100A3000580758F314962D933D934D935C93179755
:100A400008952F3F310579F4411551056105710570
:100A500019F484E08C93089564FF03C081E08C93C3
:100A600012C01C9210C02F57304013963C932E9307
:100A7000129783E08C9387E0440F551F661F771F02
:100A80008A95D1F7706414964D935D936D937C9322
:100A9000179708951F93DC01FB019C91923008F495
:100AA00047C08081823008F443C0943051F41196DD
:100AB0001C91843099F58181682F70E0611B710968
:100AC0003FC0843021F0923031F48230B9F181811D
:100AD000882389F12DC011961C9111978230F1F075
:100AE00081811817D9F412962D913C911397828128
:100AF00093818217930794F028173907BCF0149656
:100B00008D919D910D90BC91A02D248135814681C0
:100B10005781281739074A075B0718F4112341F05A
:100B20000AC082179307A407B50740F4112319F0F0
:100B300061E070E005C06FEF7FEF02C060E070E041
:100B4000CB011F910895DF93CF93CDB7DEB7A3E517
:100B5000B0E0E3E5F0E080818F7B8C93A3E5B0E02B
:100B6000E3E5F0E08081877F8C93A3E5B0E0E3E5E7
:100B7000F0E08081887F8C93A3E5B0E0E3E5F0E0CE
:100B8000808181608C93A3E5B0E0E3E5F0E08081B3
:100B90008F7C8C93A3E5B0E0E3E5F0E080818C935B
:100BA000CF91DF910895DF93CF93CDB7DEB7A3E563
:100BB000B0E0E3E5F0E08081887F8C93A3E5B0E0CE
:100BC000E3E5F0E0808181608C93CF91DF9108951F
:100BD000DF93CF93CDB7DEB7A3E5B0E0E3E5F0E078
:100BE0008081887F8C93A3E5B0E0E3E5F0E080812D
:100BF0008C93CF91DF910895DF93CF93CDB7DEB77C
:100C0000A9E5B0E0E9E5F0E0808181608C93CF91C7
:100C1000DF910895DF93CF93CDB7DEB7A9E5B0E0BC
:100C2000E9E5F0E080818E7F8C93CF91DF9108958C
:100C3000DF93CF9300D0CDB7DEB79A8389838981C4
:100C40009A8190932501809324010F900F90CF916A
:100C5000DF910895DF93CF930F92CDB7DEB78983ED
:100C6000E2E5F0E0898180830F90CF91DF910895D4
:100C7000DF93CF93CDB7DEB7A9E5B0E0E9E5F0E0CB
:100C8000808182608C93CF91DF910895DF93CF9321
:100C9000CDB7DEB7A9E5B0E0E9E5F0E080818D7F72
:100CA0008C93CF91DF910895DF93CF9300D0CDB790
:100CB000DEB79A83898389819A81909327018093F3
:100CC00026010F900F90CF91DF910895DF93CF937E
:100CD0000F92CDB7DEB78983ECE5F0E089818083A0
:100CE0000F90CF91DF910895DF93CF930F92CDB7FF
:100CF000DEB789830F90CF91DF9108951F920F92F5
:100D00000FB60F9211242F933F934F935F936F93DE
:100D10007F938F939F93AF93BF93EF93FF93DF9353
:100D2000CF93CDB7DEB7E0912401F091250109956D
:100D3000CF91DF91FF91EF91BF91AF919F918F91F3
:100D40007F916F915F914F913F912F910F900FBEC7
:100D50000F901F9018951F920F920FB60F921124AB
:100D60002F933F934F935F936F937F938F939F93B3
:100D7000AF93BF93EF93FF93DF93CF93CDB7DEB7DE
:100D8000E0912601F09127010995CF91DF91FF9124
:100D9000EF91BF91AF919F918F917F916F915F91F3
:100DA0004F913F912F910F900FBE0F901F9018956C
:100DB000DF93CF93CDB7DEB72A970FB6F894DEBF97
:100DC0000FBECDBF89836A83AFE5B0E0EFE5F0E009
:100DD000808180688C938981282F30E03A87298729
:100DE00089859A858130910509F46DC029853A85F8
:100DF0002230310509F4C9C089859A85009709F028
:100E0000E8C0ABE5B0E0EBE5F0E0808180648C9376
:100E10008A81282F30E038872F838F819885813011
:100E2000910599F12F813885223031052CF48F817D
:100E300098850097C9F1CDC02F81388522303105C2
:100E4000A9F08F8198858330910509F0C2C0A5E58E
:100E5000B0E0E5E5F0E080818E7F8C93A5E5B0E021
:100E6000E5E5F0E080818D7F8C93B3C0A5E5B0E02F
:100E7000E5E5F0E0808181608C93A5E5B0E0E5E5F3
:100E8000F0E080818D7F8C93A4C0A5E5B0E0E5E51E
:100E9000F0E080818E7F8C93A5E5B0E0E5E5F0E0A1
:100EA000808182608C9395C0A5E5B0E0E5E5F0E037
:100EB000808181608C93A5E5B0E0E5E5F0E080817C
:100EC00082608C9386C0ABE5B0E0EBE5F0E080811A
:100ED00080688C938A81282F30E03E832D838D811A
:100EE0009E818130910599F12D813E81223031051D
:100EF0002CF48D819E810097C9F16BC02D813E81BC
:100F000022303105A9F08D819E818330910509F051
:100F100060C0A5E5B0E0E5E5F0E080818B7F8C93D3
:100F2000A5E5B0E0E5E5F0E08081877F8C9351C0D6
:100F3000A5E5B0E0E5E5F0E0808184608C93A5E56F
:100F4000B0E0E5E5F0E08081877F8C9342C0A5E5C5
:100F5000B0E0E5E5F0E080818B7F8C93A5E5B0E023
:100F6000E5E5F0E0808188608C9333C0A5E5B0E0D2
:100F7000E5E5F0E0808184608C93A5E5B0E0E5E5EF
:100F8000F0E0808188608C9324C0ABE5B0E0EBE5B5
:100F9000F0E0808180628C938A81282F30E03C834E
:100FA0002B838B819C81009769F02B813C812130C0
:100FB000310579F4A4E5B0E0E4E5F0E080818F7BD1
:100FC0008C9307C0A4E5B0E0E4E5F0E080818064A4
:100FD0008C932A960FB6F894DEBF0FBECDBFCF918B
:100FE000DF910895DF93CF9300D00F92CDB7DEB796
:100FF00089838981282F30E03B832A838A819B81E2
:101000008130910589F02A813B8122303105A1F0A0
:101010008A819B810097B9F4ABE5B0E0EBE5F0E0A5
:1010200080818F7B8C930FC0ABE5B0E0EBE5F0E007
:1010300080818F778C9307C0ABE5B0E0EBE5F0E003
:1010400080818F7D8C930F900F900F90CF91DF91C7
:101050000895DF93CF9300D0CDB7DEB79A8389830D
:1010600089819A819093A2078093A1070F900F9096
:10107000CF91DF910895DF93CF9300D0CDB7DEB746
:101080009A83898389819A819093A4078093A30787
:101090000F900F90CF91DF910895DF93CF9300D001
:1010A000CDB7DEB79A83898389819A819093A0070F
:1010B00080939F070F900F90CF91DF9108951F921B
:1010C0000F920FB60F9211242F933F934F935F937C
:1010D0006F937F938F939F93AF93BF93EF93FF9300
:1010E000DF93CF93CDB7DEB7E091A107F091A207D0
:1010F0000995CF91DF91FF91EF91BF91AF919F91B2
:101100008F917F916F915F914F913F912F910F90B0
:101110000FBE0F901F9018951F920F920FB60F924F
:1011200011242F933F934F935F936F937F938F93EC
:101130009F93AF93BF93EF93FF93DF93CF93CDB77D
:10114000DEB7E091A307F091A4070995CF91DF9155
:10115000FF91EF91BF91AF919F918F917F916F918F
:101160005F914F913F912F910F900FBE0F901F9065
:1011700018951F920F920FB60F9211242F933F9341
:101180004F935F936F937F938F939F93AF93BF938F
:10119000EF93FF93DF93CF93CDB7DEB7E0919F0737
:1011A000F091A0070995CF91DF91FF91EF91BF9149
:1011B000AF919F918F917F916F915F914F913F91EF
:1011C0002F910F900FBE0F901F901895DF93CF9324
:1011D000CDB7DEB7A6E2B0E0E6E2F0E08081887F3E
:1011E0008C93A6E2B0E0E6E2F0E0808184608C932C
:1011F000A7E2B0E0E7E2F0E080818F738C93A7E292
:10120000B0E0E7E2F0E0808180648C93A6E2B0E099
:10121000E6E2F0E08081877F8C93A7E2B0E0E7E22E
:10122000F0E080818F7D8C93A6E2B0E0E6E2F0E012
:10123000808180688C93CF91DF910895DF93CF9365
:1012400000D00F92CDB7DEB78B83A7E2B0E0E7E224
:10125000F0E08081807E8C93A7E2B0E0E7E2F0E0EE
:1012600090818B81892B8C93A6E2B0E0E6E2F0E0DE
:10127000808180648C93E6E2F0E0808182958F70BB
:10128000882F90E0817090700097A9F3E4E2F0E07D
:101290008081282F30E0E5E2F0E08081882F90E027
:1012A000982F8827820F931F9A83898389819A8137
:1012B0000F900F900F90CF91DF910895DF93CF9310
:1012C000CDB7DEB7AFE5B0E0EFE5F0E08081806854
:1012D0008C93CF91DF910895DF93CF93CDB7DEB795
:1012E000AFE5B0E0EFE5F0E080818F778C93CF91B0
:1012F000DF910895DF93CF93CDB7DEB7EAE3F0E057
:101300001082E7E3F0E01082E4E3F0E01082E1E332
:10131000F0E080E48083EBE3F0E01082E8E3F0E0CB
:1013200088E08083E5E3F0E01082E2E3F0E0108201
:10133000CF91DF910895DF93CF93CDB7DEB72E978E
:101340000FB6F894DEBF0FBECDBF8A836B834C838C
:1013500081E089838B81883008F0BCC18A81282F85
:1013600030E03E872D878D859E858130910509F47B
:101370007DC02D853E85223031052CF48D859E85DE
:10138000009771F0A5C12D853E852230310509F405
:10139000D3C08D859E858330910509F433C198C1F2
:1013A0008C81282F30E03C872B878B859C85813072
:1013B000910551F02B853C852230310571F18B85EB
:1013C0009C850097A9F050C0AAE3B0E0EAE3F0E002
:1013D0008081482F8B81282F30E081E090E0022E21
:1013E00002C0880F991F0A94E2F7842B8C9373C173
:1013F000AAE3B0E0EAE3F0E08081482F8B81282F58
:1014000030E081E090E0022E02C0880F991F0A941C
:10141000E2F7809584238C935EC1AAE3B0E0EAE30F
:10142000F0E08081482F8B81282F30E081E090E030
:1014300002C0880F991F2A95E2F7809584238C9328
:10144000ABE3B0E0EBE3F0E08081482F8B81282F05
:1014500030E081E090E0022E02C0880F991F0A94CC
:10146000E2F7842B8C9337C1198235C18C81282FE8
:1014700030E03A87298789859A858130910551F036
:1014800029853A852230310571F189859A85009741
:10149000A9F050C0A7E3B0E0E7E3F0E08081482F77
:1014A0008B81282F30E081E090E0022E02C0880F6F
:1014B000991F0A94E2F7842B8C930DC1A7E3B0E047
:1014C000E7E3F0E08081482F8B81282F30E081E036
:1014D00090E0022E02C0880F991F0A94E2F78095CF
:1014E00084238C93F8C0A7E3B0E0E7E3F0E08081C9
:1014F000482F8B81282F30E081E090E002C0880FD8
:10150000991F2A95E2F7809584238C93A8E3B0E095
:10151000E8E3F0E08081482F8B81282F30E081E0E4
:1015200090E0022E02C0880F991F0A94E2F7842BE4
:101530008C93D1C01982CFC08C81282F30E038879E
:101540002F838F8198858130910551F02F813885C7
:101550002230310571F18F8198850097A9F050C034
:10156000A4E3B0E0E4E3F0E08081482F8B81282FF2
:1015700030E081E090E0022E02C0880F991F0A94AB
:10158000E2F7842B8C93A7C0A4E3B0E0E4E3F0E09F
:101590008081482F8B81282F30E081E090E0022E5F
:1015A00002C0880F991F0A94E2F7809584238C93D8
:1015B00092C0A4E3B0E0E4E3F0E08081482F8B81A7
:1015C000282F30E081E090E002C0880F991F2A9513
:1015D000E2F7809584238C93A5E3B0E0E5E3F0E0A7
:1015E0008081482F8B81282F30E081E090E0022E0F
:1015F00002C0880F991F0A94E2F7842B8C936BC06A
:10160000198269C08C81282F30E03E832D838D8123
:101610009E818130910551F02D813E81223031052E
:1016200071F18D819E810097A9F050C0A1E3B0E0D7
:10163000E1E3F0E08081482F8B81282F30E081E0CA
:1016400090E0022E02C0880F991F0A94E2F7842BC3
:101650008C9341C0A1E3B0E0E1E3F0E08081482F4A
:101660008B81282F30E081E090E0022E02C0880FAD
:10167000991F0A94E2F7809584238C932CC0A1E3F0
:10168000B0E0E1E3F0E08081482F8B81282F30E04B
:1016900081E090E002C0880F991F2A95E2F78095BB
:1016A00084238C93A2E3B0E0E2E3F0E08081482F52
:1016B0008B81282F30E081E090E0022E02C0880F5D
:1016C000991F0A94E2F7842B8C9305C0198203C0FA
:1016D000198201C0198289812E960FB6F894DEBF57
:1016E0000FBECDBFCF91DF910895DF93CF93CDB7DC
:1016F000DEB72E970FB6F894DEBF0FBECDBF8A833C
:101700006B834C8381E089838B81883008F00CC126
:101710008A81282F30E03E872D878D859E858130F8
:10172000910509F451C02D853E85223031052CF4F8
:101730008D859E85009771F0F5C02D853E85223000
:10174000310509F47BC08D859E858330910509F4B0
:10175000AFC0E8C08C81282F30E03C872B878B8579
:101760009C85009731F02B853C8521303105B1F007
:1017700029C0ABE3B0E0EBE3F0E08081482F8B8140
:10178000282F30E081E090E0022E02C0880F991FE0
:101790000A94E2F7809584238C93C7C0ABE3B0E052
:1017A000EBE3F0E08081482F8B81282F30E081E04F
:1017B00090E0022E02C0880F991F0A94E2F7842B52
:1017C0008C93B3C01982B1C08C81282F30E03A8746
:1017D000298789859A85009731F029853A852130B6
:1017E0003105B1F029C0A8E3B0E0E8E3F0E0808182
:1017F000482F8B81282F30E081E090E0022E02C03C
:10180000880F991F0A94E2F7809584238C938DC0EA
:10181000A8E3B0E0E8E3F0E08081482F8B81282F37
:1018200030E081E090E0022E02C0880F991F0A94F8
:10183000E2F7842B8C9379C0198277C08C81282F92
:1018400030E038872F838F819885009731F02F8182
:10185000388521303105B1F029C0A5E3B0E0E5E3DA
:10186000F0E08081482F8B81282F30E081E090E0EC
:10187000022E02C0880F991F0A94E2F780958423F4
:101880008C9353C0A5E3B0E0E5E3F0E08081482FFE
:101890008B81282F30E081E090E0022E02C0880F7B
:1018A000991F0A94E2F7842B8C933FC019823DC0A4
:1018B0008C81282F30E03E832D838D819E8100977F
:1018C00031F02D813E8121303105B1F029C0A2E3F4
:1018D000B0E0E2E3F0E08081482F8B81282F30E0F8
:1018E00081E090E0022E02C0880F991F0A94E2F76F
:1018F000809584238C9319C0A2E3B0E0E2E3F0E08A
:101900008081482F8B81282F30E081E090E0022EEB
:1019100002C0880F991F0A94E2F7842B8C9305C0AC
:10192000198203C0198201C0198289812E960FB6CF
:10193000F894DEBF0FBECDBFCF91DF910895DF9346
:10194000CF93CDB7DEB727970FB6F894DEBF0FBEA3
:10195000CDBF8A836B835D834C8381E089838B81D8
:10196000883008F078C08C819D81009709F473C09D
:101970008A81282F30E03F832E834E815F81413062
:10198000510559F18E819F818230910534F42E8169
:101990003F812115310569F05CC04E815F81423085
:1019A000510579F18E819F818330910509F43DC005
:1019B00050C0E9E3F0E08081282F30E08B81882F50
:1019C00090E0A90102C0559547958A95E2F7CA01B2
:1019D0008170EC81FD8180833FC0E6E3F0E080818F
:1019E000282F30E08B81882F90E0A90102C0559507
:1019F00047958A95E2F7CA018170EC81FD81808369
:101A00002BC0E3E3F0E08081282F30E08B81882F2A
:101A100090E0A90102C0559547958A95E2F7CA0161
:101A20008170EC81FD81808317C0E0E3F0E080816C
:101A3000282F30E08B81882F90E0A90102C05595B6
:101A400047958A95E2F7CA018170EC81FD81808318
:101A500003C0198201C01982898127960FB6F894B4
:101A6000DEBF0FBECDBFCF91DF910895DF93CF933F
:101A700000D000D00F92CDB7DEB78A836B8381E0B0
:101A800089838B81883008F071C08A81282F30E0EB
:101A90003D832C838C819D818130910549F12C817E
:101AA0003D81223031052CF48C819D81009761F0BD
:101AB0005BC02C813D812230310571F18C819D818B
:101AC00083309105E9F150C0ABE3B0E0EBE3F0E027
:101AD0008081482F8B81282F30E081E090E0022E1A
:101AE00002C0880F991F0A94E2F784278C933FC0A5
:101AF000A8E3B0E0E8E3F0E08081482F8B81282F55
:101B000030E081E090E0022E02C0880F991F0A9415
:101B1000E2F784278C932BC0A5E3B0E0E5E3F0E087
:101B20008081482F8B81282F30E081E090E0022EC9
:101B300002C0880F991F0A94E2F784278C9317C07C
:101B4000A2E3B0E0E2E3F0E08081482F8B81282F10
:101B500030E081E090E0022E02C0880F991F0A94C5
:101B6000E2F784278C9303C0198201C0198289810E
:101B70000F900F900F900F900F90CF91DF910895DD
:101B8000DF93CF93CDB7DEB72D970FB6F894DEBFB6
:101B90000FBECDBF8A836B8381E089838A81282F22
:101BA00030E03D872C878C859D858130910509F437
:101BB0003EC02C853D85223031052CF48C859D85D9
:101BC000009771F0A9C02C853D852230310509F4BC
:101BD00055C08C859D858330910509F476C09CC0E5
:101BE0008B81282F30E03B872A878A859B8581302F
:101BF000910551F02A853B852230310571F08A85A7
:101C00009B85009731F011C0EAE3F0E08FEF80830D
:101C100084C0EAE3F0E0108280C0EAE3F0E01082E2
:101C2000EBE3F0E08FEF808378C0198276C08B8180
:101C3000282F30E03987288788859985813091055C
:101C400051F0288539852230310571F088859985D4
:101C5000009731F011C0E7E3F0E08FEF80835DC0C3
:101C6000E7E3F0E0108259C0E7E3F0E01082E8E338
:101C7000F0E08FEF808351C019824FC08B81282FF5
:101C800030E03F832E838E819F818130910551F01A
:101C90002E813F812230310571F08E819F81009726
:101CA00031F011C0E4E3F0E08FEF808336C0E4E36D
:101CB000F0E0108232C0E4E3F0E01082E5E3F0E00F
:101CC0008FEF80832AC0198228C08B81282F30E0B3
:101CD0003D832C838C819D818130910551F02C8135
:101CE0003D812230310571F08C819D81009731F06A
:101CF00011C0E1E3F0E08FEF80830FC0E1E3F0E09B
:101D000010820BC0E1E3F0E01082E2E3F0E08FEF3D
:101D1000808303C0198201C0198289812D960FB674
:101D2000F894DEBF0FBECDBFCF91DF910895DF9352
:101D3000CF9300D000D00F92CDB7DEB78A836B83EC
:101D400081E089838A81282F30E03D832C838C8138
:101D50009D8181309105D1F02C813D81223031056A
:101D60002CF48C819D81009761F01FC02C813D81F6
:101D70002230310581F08C819D818330910581F085
:101D800014C0EBE3F0E08B81808310C0E8E3F0E067
:101D90008B8180830BC0E5E3F0E08B81808306C0FC
:101DA000E2E3F0E08B81808301C0198289810F908A
:101DB0000F900F900F900F90CF91DF910895DF93C8
:101DC000CF9300D000D000D0CDB7DEB78A837C831C
:101DD0006B8381E089838B819C810097E9F18A8103
:101DE000282F30E03E832D838D819E8181309105A7
:101DF000E1F02D813E81223031052CF48D819E81D0
:101E0000009761F027C02D813E8122303105A1F07D
:101E10008D819E8183309105B1F01CC0E9E3F0E033
:101E20008081EB81FC81808318C0E6E3F0E0808153
:101E3000EB81FC81808311C0E3E3F0E08081EB81E2
:101E4000FC8180830AC0E0E3F0E08081EB81FC81CB
:101E5000808303C0198201C01982898126960FB63A
:101E6000F894DEBF0FBECDBFCF91DF910895DF9311
:101E7000CF9300D000D0CDB7DEB789836A83898144
:101E8000282F30E03C832B838B819C81813091050E
:101E900031F12B813C81223031052CF48B819C81E6
:101EA000009761F04EC02B813C812230310541F119
:101EB0008B819C8183309105A1F143C0ABE3B0E0FD
:101EC000EBE3F0E0808187788C93ABE3B0E0EBE369
:101ED000F0E090818A818695892B8C9332C0A8E3AB
:101EE000B0E0E8E3F0E0808187788C93A8E3B0E08D
:101EF000E8E3F0E090818A818695892B8C9321C05C
:101F0000A5E3B0E0E5E3F0E0808187788C93A5E37A
:101F1000B0E0E5E3F0E090818A818695892B8C938F
:101F200010C0A2E3B0E0E2E3F0E0808187788C9318
:101F3000A2E3B0E0E2E3F0E090818A818695892B0C
:101F40008C930F900F900F900F90CF91DF91089589
:101F5000DF93CF93CDB7DEB729970FB6F894DEBFE6
:101F60000FBECDBF89836A834B838B81282F30E0DE
:101F70003987288788859985009739F0288539859C
:101F80002130310509F450C0A9C08A81282F30E0E2
:101F90003F832E838E819F818130910509F12E81AF
:101FA0003F81223031052CF48E819F81009761F0B2
:101FB00095C02E813F8122303105F1F08E819F81C5
:101FC0008330910529F18AC08981882F90E0FC0136
:101FD000ED51FF4F908180E0692F0E94970E7EC0E7
:101FE0008981882F90E0FC01ED51FF4F908181E0C5
:101FF000692F0E94970E72C08981882F90E0FC01A2
:10200000ED51FF4F908182E0692F0E94970E66C0CC
:102010008981882F90E0FC01ED51FF4F908183E092
:10202000692F0E94970E5AC08A81282F30E03D8385
:102030002C838C819D818130910521F12C813D8102
:10204000223031052CF48C819D81009761F046C0CF
:102050002C813D812230310521F18C819D8183309D
:10206000910571F13BC08981882F90E0FC01ED5111
:10207000FF4F80818095982F990F80E0692F0E94F3
:10208000970E2CC08981882F90E0FC01ED51FF4F05
:1020900080818095982F990F81E0692F0E94970E7B
:1020A0001DC08981882F90E0FC01ED51FF4F808198
:1020B0008095982F990F82E0692F0E94970E0EC08D
:1020C0008981882F90E0FC01ED51FF4F8081809540
:1020D000982F990F83E0692F0E94970E29960FB6CB
:1020E000F894DEBF0FBECDBFCF91DF910895DF938F
:1020F000CF9300D000D0CDB7DEB789836A838A81C1
:10210000282F30E03C832B838B819C81813091058B
:10211000D1F02B813C81223031052CF48B819C81C4
:10212000009761F01EC02B813C812230310581F087
:102130008B819C818330910581F013C080E069819F
:102140000E94970E0EC081E069810E94970E09C01F
:1021500082E069810E94970E04C083E069810E9439
:10216000970E0F900F900F900F90CF91DF910895E1
:10217000DF93CF9300D00F92CDB7DEB789838981EB
:10218000282F30E03B832A838A819B81813091050F
:1021900079F02A813B812230310581F08A819B814F
:1021A000009789F482E060E041E00E949B090BC047
:1021B00082E061E041E00E949B0905C082E062E0AC
:1021C00041E00E949B090F900F900F90CF91DF91FB
:1021D0000895DF93CF9300D00F92CDB7DEB78983F8
:1021E0008981282F30E03B832A838A819B8181303B
:1021F000910579F02A813B812230310581F08A8175
:102200009B81009789F482E060E041E00E94750BB9
:102210000BC082E061E041E00E94750B05C082E0E6
:1022200062E041E00E94750B0F900F900F90CF91EC
:10223000DF910895DF93CF9300D00F92CDB7DEB733
:1022400089838981282F30E03B832A838A819B817F
:102250008130910579F02A813B812230310581F06E
:102260008A819B81009789F482E060E040E00E94CF
:10227000750B0BC082E061E040E00E94750B05C069
:1022800082E062E040E00E94750B0F900F900F908B
:10229000CF91DF910895DF93CF9300D00F92CDB708
:1022A000DEB789838981282F30E03B832A838A81A6
:1022B0009B818130910571F02A813B81223031056B
:1022C00071F08A819B81009771F482E060E00E9446
:1022D000360D09C082E061E00E94360D04C082E044
:1022E00062E00E94360D0F900F900F90CF91DF911A
:1022F00008950F931F93DF93CF93CDB7DEB7C654E6
:10230000D0400FB6F894DEBF0FBECDBF81E063E0D2
:1023100041E00E949B0981E064E041E00E949B094A
:1023200081E065E041E00E949B0981E066E041E0D8
:102330000E949B0980E061E041E00E949B0980E0EF
:1023400062E041E00E949B0980E063E041E00E947E
:102350009B09FE01ED5BFF4F80E090E0A0EFB1E450
:1023600080839183A283B3838E01015C1F4FFE01A2
:10237000ED5BFF4F608171818281938120E030E0CD
:102380004AEF54E40E941F02DC01CB01F801808374
:102390009183A283B383FE01FF9660817181828164
:1023A000938120E030E040E85FE30E9479038823D6
:1023B0002CF481E090E09EAF8DAF46C0FE01FF9609
:1023C000608171818281938120E03FEF4FE757E484
:1023D0000E941903181664F5FE01ED5BFF4F608142
:1023E00071818281938120E030E040E251E40E94DB
:1023F0001F02DC01CB01BC01CD010E944900DC01C0
:10240000CB019EAF8DAF0FC088EC90E09CAF8BAF3F
:102410008BAD9CAD0197F1F79CAF8BAF8DAD9EADB1
:1024200001979EAF8DAF8DAD9EAD009769F716C039
:10243000FE01FF9660817181828193810E94490033
:10244000DC01CB019EAF8DAF8DAD9EAD9AAF89AF54
:1024500089AD9AAD0197F1F79AAF89AF80E20E94FA
:102460001D1480E20E941D1480E80E941D1480E06B
:1024700090E0A0E0B0E48DAB9EABAFABB8AF6DA980
:102480007EA98FA998AD20E030E04AEF54E40E9485
:102490001F02DC01CB0189AB9AABABABBCAB69A92A
:1024A0007AA98BA99CA920E030E040E85FE30E9474
:1024B000790388232CF481E090E098AB8FA73FC08C
:1024C00069A97AA98BA99CA920E03FEF4FE757E4BF
:1024D0000E94190318164CF56DA97EA98FA998AD15
:1024E00020E030E040E251E40E941F02DC01CB0119
:1024F000BC01CD010E944900DC01CB0198AB8FA744
:102500000FC088EC90E09EA78DA78DA59EA5019792
:10251000F1F79EA78DA78FA598A9019798AB8FA7D4
:102520008FA598A9009769F714C069A97AA98BA902
:102530009CA90E944900DC01CB0198AB8FA78FA515
:1025400098A99CA78BA78BA59CA50197F1F79CA7A1
:102550008BA780E00E941D1480EE0E941D1480E075
:1025600090E0A0E0B0E48FA398A7A9A7BAA76FA1B5
:1025700078A589A59AA520E030E04AEF54E40E94AE
:102580001F02DC01CB018BA39CA3ADA3BEA36BA157
:102590007CA18DA19EA120E030E040E85FE30E9495
:1025A000790388232CF481E090E09AA389A33FC0AB
:1025B0006BA17CA18DA19EA120E03FEF4FE757E4E6
:1025C0000E94190318164CF56FA178A589A59AA544
:1025D00020E030E040E251E40E941F02DC01CB0128
:1025E000BC01CD010E944900DC01CB019AA389A363
:1025F0000FC088EC90E098A38F8F8F8D98A10197E2
:10260000F1F798A38F8F89A19AA101979AA389A323
:1026100089A19AA1009769F714C06BA17CA18DA133
:102620009EA10E944900DC01CB019AA389A389A144
:102630009AA19E8F8D8F8D8D9E8D0197F1F79E8F24
:102640008D8F80E00E941D1480E10E941D1480E0A7
:1026500090E0A0E0B0E4898F9A8FAB8FBC8F698D3A
:102660007A8D8B8D9C8D20E030E04AEF54E40E94FF
:102670001F02DC01CB018D8B9E8BAF8BB88F6D89D8
:102680007E898F89988D20E030E040E85FE30E94EA
:10269000790388232CF481E090E09C8B8B8B3FC0E6
:1026A0006D897E898F89988D20E03FEF4FE757E451
:1026B0000E94190318164CF5698D7A8D8B8D9C8DAF
:1026C00020E030E040E251E40E941F02DC01CB0137
:1026D000BC01CD010E944900DC01CB019C8B8B8B9E
:1026E0000FC088EC90E09A8B898B89899A89019731
:1026F000F1F79A8B898B8B899C8901979C8B8B8BAB
:102700008B899C89009769F714C06D897E898F89B0
:10271000988D0E944900DC01CB019C8B8B8B8B89AF
:102720009C89988B8F878F8598890197F1F7988B73
:102730008F8780E00E941D1480E60E941D1480E0B7
:1027400090E0A0E0B0E48B879C87AD87BE876B8567
:102750007C858D859E8520E030E04AEF54E40E9420
:102760001F02DC01CB018F839887A987BA876F810D
:10277000788589859A8520E030E040E85FE30E9413
:10278000790388232CF481E090E09E838D833FC001
:102790006F81788589859A8520E03FEF4FE757E480
:1027A0000E94190318164CF56B857C858D859E85D6
:1027B00020E030E040E251E40E941F02DC01CB0146
:1027C000BC01CD010E944900DC01CB019E838D83B9
:1027D0000FC088EC90E09C838B838B819C81019758
:1027E000F1F79C838B838D819E8101979E838D83DE
:1027F0008D819E81009769F714C06F8178858985E6
:102800009A850E944900DC01CB019E838D838D81D6
:102810009E819A83898389819A810197F1F79A83AE
:102820008983CA5BDF4F0FB6F894DEBF0FBECDBF02
:10283000CF91DF911F910F910895DF93CF93CDB783
:10284000DEB72F970FB6F894DEBF0FBECDBF8F87D0
:1028500080E061E040E00E94750B81E06F850E949E
:10286000370F80E063E041E00E94750B80E090E06C
:10287000A0EAB0E48B879C87AD87BE876B857C859B
:102880008D859E8520E030E04AEF54E40E941F02CF
:10289000DC01CB018F839887A987BA876F81788500
:1028A00089859A8520E030E040E85FE30E94790363
:1028B00088232CF481E090E09E838D833FC06F815C
:1028C000788589859A8520E03FEF4FE757E40E949D
:1028D000190318164CF56B857C858D859E8520E047
:1028E00030E040E251E40E941F02DC01CB01BC0158
:1028F000CD010E944900DC01CB019E838D830FC076
:1029000088EC90E09C838B838B819C810197F1F70D
:102910009C838B838D819E8101979E838D838D8186
:102920009E81009769F714C06F81788589859A85A3
:102930000E944900DC01CB019E838D838D819E81A5
:102940009A83898389819A810197F1F79A83898390
:1029500080E063E040E00E94750B2F960FB6F8947C
:10296000DEBF0FBECDBFCF91DF910895DF93CF9330
:10297000CDB7DEB76E970FB6F894DEBF0FBECDBFF2
:102980008E8F80E061E041E00E94750B8E8D8D8F0F
:102990008D8D807F8D8F81E06D8D0E94370F80E05F
:1029A00063E041E00E94750B80E090E0A0EAB0E4B3
:1029B000898F9A8FAB8FBC8F698D7A8D8B8D9C8D13
:1029C00020E030E04AEF54E40E941F02DC01CB011A
:1029D0008D8B9E8BAF8BB88F6D897E898F89988DFB
:1029E00020E030E040E85FE30E94790388232CF484
:1029F00081E090E09C8B8B8B3FC06D897E898F89B5
:102A0000988D20E03FEF4FE757E40E941903181616
:102A10004CF5698D7A8D8B8D9C8D20E030E040E205
:102A200051E40E941F02DC01CB01BC01CD010E94D8
:102A30004900DC01CB019C8B8B8B0FC088EC90E0B4
:102A40009A8B898B89899A890197F1F79A8B898B5F
:102A50008B899C8901979C8B8B8B8B899C89009798
:102A600069F714C06D897E898F89988D0E9449000D
:102A7000DC01CB019C8B8B8B8B899C89988B8F87FE
:102A80008F8598890197F1F7988B8F8780E063E0B5
:102A900040E00E94750B8E8D882F90E08295929574
:102AA000907F9827807F98278E8F81E06E8D0E947F
:102AB000370F80E063E041E00E94750B80E090E01A
:102AC000A0EAB0E48B879C87AD87BE876B857C8549
:102AD0008D859E8520E030E04AEF54E40E941F027D
:102AE000DC01CB018F839887A987BA876F817885AE
:102AF00089859A8520E030E040E85FE30E94790311
:102B000088232CF481E090E09E838D833FC06F8109
:102B1000788589859A8520E03FEF4FE757E40E944A
:102B2000190318164CF56B857C858D859E8520E0F4
:102B300030E040E251E40E941F02DC01CB01BC0105
:102B4000CD010E944900DC01CB019E838D830FC023
:102B500088EC90E09C838B838B819C810197F1F7BB
:102B60009C838B838D819E8101979E838D838D8134
:102B70009E81009769F714C06F81788589859A8551
:102B80000E944900DC01CB019E838D838D819E8153
:102B90009A83898389819A810197F1F79A8389833E
:102BA00080E063E040E00E94750B6E960FB6F894EB
:102BB000DEBF0FBECDBFCF91DF910895DF93CF93DE
:102BC00000D00F92CDB7DEB79B838A8319820EC0E7
:102BD0008981282F30E08A819B81FC01E20FF31F5D
:102BE00080810E94B61489818F5F89838981282F13
:102BF00030E08A819B81FC01E20FF31F80818823F2
:102C000039F70F900F900F90CF91DF9108950F93A8
:102C10001F93DF93CF93CDB7DEB760970FB6F894CD
:102C2000DEBF0FBECDBF6D877E878F87988B1A82E0
:102C30002DC08A81082F10E08D859E85AF85B889CB
:102C40002AE030E040E050E0BC01CD010E94E346C4
:102C5000DC01CB01282FCE010396FC01E00FF11F10
:102C600020838A818F5F8A838D859E85AF85B88911
:102C70002AE030E040E050E0BC01CD010E94E34694
:102C8000DA01C9018D879E87AF87B88B8D859E85B8
:102C9000AF85B8890097A105B10559F68A818150A1
:102CA00089838981282F30E0CE010396FC01E20F51
:102CB000F31F8081805D0E94B6148981882321F0F2
:102CC000898181508983EDCF60960FB6F894DEBF7D
:102CD0000FBECDBFCF91DF911F910F910895DF936C
:102CE000CF93CDB7DEB780E00E941D1480E10E9433
:102CF0001D14CF91DF910895DF93CF9300D000D0C2
:102D0000CDB7DEB789836A838A81803130F58981C6
:102D1000282F30E03C832B838B819C81009731F0FE
:102D20002B813C812130310569F017C08A818058A0
:102D3000807F0E941D148A8180588295807F0E9426
:102D40001D140BC08A818054807F0E941D148A81CB
:102D500080548295807F0E941D140F900F900F90D9
:102D60000F90CF91DF910895DF93CF9300D000D0E3
:102D7000CDB7DEB79B838A836C838C81882F90E0EC
:102D80000896880F991F880F991F880F991F807FB9
:102D90000E941D148C81882F90E00896880F991F3F
:102DA000880F991F880F991F8295807F0E941D149C
:102DB00019820EC08981282F30E08A819B81FC0115
:102DC000E20FF31F80810E94B61489818F5F89838F
:102DD0008981873078F380E80E941D1480E00E948A
:102DE0001D140F900F900F900F90CF91DF910895C9
:102DF000DF93CF930F92CDB7DEB7898389810E948D
:102E0000B6140F90CF91DF910895DF93CF93CDB794
:102E1000DEB783E062E041E00E949B0983E063E06B
:102E200041E00E949B0983E064E041E00E949B092D
:102E300083E065E041E00E949B0982E064E042E0BB
:102E40000E949B0982E065E042E00E949B0982E0CB
:102E500066E042E00E949B0982E067E042E00E9457
:102E60009B0983E062E041E00E94750B83E063E030
:102E700041E00E94750B83E064E041E00E94750B25
:102E800083E065E041E00E94750BCF91DF910895EA
:102E9000DF93CF93CDB7DEB7A7970FB6F894DEBF19
:102EA0000FBECDBF8FEF898BCE0143969CA38BA322
:102EB000E4E1F1E0FEA3EDA3F0E1FFA3EDA1FEA1AB
:102EC00000808DA19EA101969EA38DA3EBA1FCA1E4
:102ED00000828BA19CA101969CA38BA39FA19150E2
:102EE0009FA3EFA1EE2351F782E0888BBBC083E064
:102EF000688940E00E94750B84E08F87A7C09E011F
:102F00002E5E3F4F82E06F85A9010E949F0C8A8947
:102F1000882309F098C08F85882F90E09C01245069
:102F200030408889882F90E0AC0142505040220FF9
:102F3000331F220F331FCE010196820F931F840F80
:102F4000951FFC0172968081898B08C09E012E5EC0
:102F50003F4F82E06F85A9010E949F0C8A898823D8
:102F6000A9F380E090E0A0E2B1E48B879C87AD8775
:102F7000BE876B857C858D859E8520E030E04AEF9D
:102F800054E40E941F02DC01CB018F839887A9873C
:102F9000BA876F81788589859A8520E030E040E89E
:102FA0005FE30E94790388232CF481E090E09E8304
:102FB0008D833FC06F81788589859A8520E03FEFBA
:102FC0004FE757E40E94190318164CF56B857C8572
:102FD0008D859E8520E030E040E251E40E941F0292
:102FE000DC01CB01BC01CD010E944900DC01CB0119
:102FF0009E838D830FC088EC90E09C838B838B81B4
:103000009C810197F1F79C838B838D819E81019731
:103010009E838D838D819E81009769F714C06F8197
:10302000788589859A850E944900DC01CB019E83C1
:103030008D838D819E819A83898389819A8101976D
:10304000F1F79A8389838F858F5F8F878F8588308B
:1030500008F455CF83E0688941E00E94750B8889A8
:103060008F5F888B8889863008F441CF8989A7963D
:103070000FB6F894DEBF0FBECDBFCF91DF9108959C
:10308000DF93CF9300D0CDB7DEB78BE090E00E9406
:10309000851B9A83898389819A81009749F0E98108
:1030A000FA811182108289819A8102960E94051C00
:1030B00089819A810F900F90CF91DF910895DF93CE
:1030C000CF93CDB7DEB760970FB6F894DEBF0FBED3
:1030D000CDBF9A8789877C876B875E874D87388BC2
:1030E0002F8789859A859C838B8319820E94B532AC
:1030F000EB81FC818081918198878F8389859A8576
:103100002B853C85B9010E94361A2F8138858B8525
:103110009C85282B392B8D859E85282339238D85E9
:103120009E8528173907C9F42F8138858B859C85A2
:10313000822B932B9E838D83EB81FC8120813181B7
:103140008D859E858095909582239323EB81FC81CC
:1031500091838083188A1F861EC08F859889009767
:1031600091F08B819C81BC016E5F7F4F8D859E8528
:103170009C0135604F855889CB01B9010E94B43656
:103180001E821D8208C0EB81FC81808191819E831B
:103190008D8381E089830E94C1328A838F859889DB
:1031A000009709F43AC08A81882311F40E94FA1E1C
:1031B0000E94D93A9E838D838D819E81807092700A
:1031C000009731F50FB6F8940F92EB81FC81808166
:1031D00091819E838D832D813E818D859E852823BF
:1031E00039238D859E852817390771F4EB81FC8181
:1031F000208131818D859E858095909582239323B2
:10320000EB81FC81918380830F900FBE81E08983E5
:103210008D819E8190709E838D838D819E8160962D
:103220000FB6F894DEBF0FBECDBFCF91DF910895EA
:103230000F931F93DF93CF93CDB7DEB763970FB68E
:10324000F894DEBF0FBECDBF9D878C877F876E87CA
:10325000488B298B1B8B0A8B8C859D859B878A8746
:103260001F821E821B820E94B532EA85FB85808107
:1032700091819A83898389819A812E853F85B901BD
:1032800049890E94531B8D838D818823C1F08981D8
:103290009A81998788871B8A1A8A88898823E9F105
:1032A000EA85FB85208131818E859F85809590956B
:1032B00082239323EA85FB85918380832EC08A89AC
:1032C0009B89009739F489819A819987888781E061
:1032D0008B8323C08889882329F08E819F81916008
:1032E0009F838E838989882329F08E819F819460B2
:1032F0009F838E838A859B85BC016E5F7F4F2E8561
:103300003F858E819F81282B392B4A895B89CB0190
:10331000B9010E94B436198618860E94C1328C8386
:103320008A899B89009709F43CC08C81882311F419
:103330000E94FA1E0E94D93A9987888788859985C4
:1033400080709270009741F50FB6F8940F92EA855D
:10335000FB858081918199878887888599852E85CD
:103360003F85B90149890E94531B882389F08889C8
:10337000882371F0EA85FB85208131818E859F85C8
:103380008095909582239323EA85FB8591838083A2
:1033900081E08B830F900FBE888599859070998707
:1033A00088878885998563960FB6F894DEBF0FBE2F
:1033B000CDBFCF91DF911F910F910895DF93CF93F0
:1033C000CDB7DEB728970FB6F894DEBF0FBECDBFDE
:1033D0009E838D8378876F838D819E819C838B8371
:1033E0000FB6F8940F92EB81FC81808191819A83D2
:1033F0008983EB81FC81208131818F819885809543
:10340000909582239323EB81FC81918380830F909D
:103410000FBE89819A8128960FB6F894DEBF0FBE41
:10342000CDBFCF91DF910895DF93CF93CDB7DEB7B6
:1034300027970FB6F894DEBF0FBECDBF9F838E8354
:103440008E819F819C838B831D82EB81FC81808197
:1034500091819A83898389819A8127960FB6F894FE
:10346000DEBF0FBECDBFCF91DF910895DF93CF9325
:10347000CDB7DEB765970FB6F894DEBF0FBECDBFF0
:103480009B8B8A8B7D8B6C8B198618868A899B898E
:103490009B838A8319828A819B8102969B878A8774
:1034A0008A859B8503969D878C870E94B532EA8525
:1034B000FB8585819681998B888BEA81FB812081B0
:1034C00031818C899D89822B932BEA81FB819183A9
:1034D000808359C0E889F989828193819F878E878B
:1034E000E889F989808191819F838E8319828E81F9
:1034F0009F8180709D838C838E819F8190709F833C
:103500008E838C819D8180709470009769F4EA812C
:10351000FB81208131818E819F81822393230097BB
:1035200091F081E089830FC0EA81FB8120813181A4
:103530008E819F81282339238E819F812817390707
:1035400011F481E0898389818823C9F08C819D8170
:1035500080709170009741F0888599852E813F8118
:10356000822B932B99878887EA81FB8180819181C7
:103570009C01326088899989B9010E945D388E85E5
:103580009F85998B888B288939898C859D852817FB
:10359000390709F09FCFEA81FB812081318188853D
:1035A00099858095909582239323EA81FB8191836D
:1035B00080830E94C132EA81FB818081918165967E
:1035C0000FB6F894DEBF0FBECDBFCF91DF91089547
:1035D000DF93CF9300D000D000D0CDB7DEB79E836D
:1035E0008D838D819E819C838B838B819C810296B0
:1035F0009A8389830E94B53208C0E981FA81858166
:10360000968160E072E00E945D38E981FA818081F4
:10361000882399F78B819C810E94DF1B0E94C13215
:1036200026960FB6F894DEBF0FBECDBFCF91DF91C7
:103630000895DF93CF9300D000D000D0CDB7DEB790
:103640009A8389834B835C836D837E8389819A818E
:103650002B813C81B9010E94361A26960FB6F89448
:10366000DEBF0FBECDBFCF91DF910895DF93CF9323
:1036700000D000D000D0CDB7DEB79A8389834B83CA
:103680005C836D837E8389819A812B813C81B90122
:103690000E94DE1926960FB6F894DEBF0FBECDBF8E
:1036A000CF91DF910895DF93CF9300D000D000D069
:1036B000CDB7DEB79B838A837D836C834E8319826B
:1036C0008E81882359F48A819B812C813D818223BC
:1036D0009323009781F081E089830DC02A813B818B
:1036E0008C819D81282339238C819D81281739075E
:1036F00011F481E08983898126960FB6F894DEBFA4
:103700000FBECDBFCF91DF910895DF93CF9300D04F
:1037100000D0CDB7DEB79C838B831A8219820E94BA
:10372000B53280912A0190912B01009731F48CE2FF
:1037300091E090932B0180932A018B819C810097CB
:1037400099F180912801909129012B813C81820F70
:10375000931F25E08B3D920738F520912801309189
:1037600029018B819C81280F391F8091280190911C
:10377000290182179307C0F420912A0130912B016F
:103780008091280190912901820F931F9A83898348
:1037900020912801309129018B819C81820F931FF8
:1037A00090932901809328010E94C13289819A81D6
:1037B0000F900F900F900F90CF91DF910895DF93AE
:1037C000CF9300D0CDB7DEB79A8389830F900F9047
:1037D000CF91DF910895DF93CF93CDB7DEB71092ED
:1037E000290110922801CF91DF910895DF93CF93A3
:1037F000CDB7DEB720912801309129018BED95E0FE
:10380000821B930BCF91DF910895DF93CF9300D06C
:10381000CDB7DEB79A83898389819A810396E9813E
:10382000FA8192838183E981FA818FEF9FEF9483FC
:10383000838389819A810396E981FA8196838583BE
:1038400089819A810396E981FA8190878783E9814A
:10385000FA8110820F900F90CF91DF910895DF933E
:10386000CF9300D0CDB7DEB79A838983E981FA81FF
:10387000118610860F900F90CF91DF910895DF93FE
:10388000CF9300D000D000D0CDB7DEB79C838B8320
:103890007E836D83EB81FC81818192819A83898310
:1038A000ED81FE8189819A8193838283E981FA8106
:1038B00084819581ED81FE8195838483E981FA81FC
:1038C0000480F581E02D8D819E8193838283E9813F
:1038D000FA818D819E8195838483ED81FE818B8128
:1038E0009C8191878087EB81FC8180818F5FEB8158
:1038F000FC81808326960FB6F894DEBF0FBECDBF45
:10390000CF91DF910895DF93CF93CDB7DEB728979E
:103910000FB6F894DEBF0FBECDBF9E838D83788730
:103920006F83EF81F885808191819A838983898172
:103930009A812FEF8F3F920739F4ED81FE818781C5
:1039400090859C838B8318C08D819E8103969C8378
:103950008B8306C0EB81FC81828193819C838B8366
:10396000EB81FC810280F381E02D2081318189810E
:103970009A818217930770F7EB81FC818281938192
:10398000EF81F88593838283EF81F8850280F3814C
:10399000E02D8F81988595838483EF81F8858B81D5
:1039A0009C8195838483EB81FC818F8198859383AF
:1039B0008283EF81F8858D819E8191878087ED815B
:1039C000FE8180818F5FED81FE81808328960FB616
:1039D000F894DEBF0FBECDBFCF91DF910895DF9386
:1039E000CF9300D000D0CDB7DEB79C838B83EB8123
:1039F000FC81808591859A838983EB81FC81A281FA
:103A0000B381EB81FC818481958115969C938E9383
:103A10001497EB81FC81A481B581EB81FC818281CB
:103A2000938113969C938E931297E981FA81218159
:103A300032818B819C812817390741F4EB81FC810D
:103A400084819581E981FA8192838183EB81FC8174
:103A500011861086E981FA8180818150E981FA819D
:103A60008083E981FA8180810F900F900F900F90F1
:103A7000CF91DF910895DF93CF93CDB7DEB728972D
:103A80000FB6F894DEBF0FBECDBF9C838B837E83C1
:103A90006D8358874F83EB81FC8181E180838B812B
:103AA0009C8101979C838B83EB81FC8182E28083E4
:103AB0008B819C8101979C838B83EB81FC8183E3C9
:103AC00080838B819C8101979C838B838D819E81D8
:103AD0009A8389838981EB81FC8180838B819C819E
:103AE00001979C838B8389819A81892F99279A8357
:103AF00089838981EB81FC8180838B819C81019703
:103B00009C838B83EB81FC8110828B819C8101974C
:103B10009C838B83EB81FC8180E880838B819C81FB
:103B200001979C838B83EB81FC8110828B819C812C
:103B300001979C838B83EB81FC8182E080838B8166
:103B40009C8101979C838B83EB81FC8183E0808344
:103B50008B819C8101979C838B83EB81FC8184E02A
:103B600080838B819C8101979C838B83EB81FC817B
:103B700085E080838B819C8101979C838B83EB8183
:103B8000FC8186E080838B819C8101979C838B8361
:103B9000EB81FC8187E080838B819C8101979C83F2
:103BA0008B83EB81FC8188E080838B819C810197F2
:103BB0009C838B83EB81FC8189E080838B819C815A
:103BC00001979C838B83EB81FC8180E180838B81D7
:103BD0009C8101979C838B83EB81FC8181E18083B5
:103BE0008B819C8101979C838B83EB81FC8182E19B
:103BF00080838B819C8101979C838B83EB81FC81EB
:103C000083E180838B819C8101979C838B83EB81F3
:103C1000FC8184E180838B819C8101979C838B83D1
:103C2000EB81FC8185E180838B819C8101979C8362
:103C30008B83EB81FC8186E180838B819C81019762
:103C40009C838B83EB81FC8187E180838B819C81CA
:103C500001979C838B83EB81FC8188E180838B813E
:103C60009C8101979C838B83EB81FC8189E180831C
:103C70008B819C8101979C838B83EB81FC8180E20B
:103C800080838B819C8101979C838B83EB81FC815A
:103C900081E280838B819C8101979C838B83EB8164
:103CA000FC8182E280838B819C8101979C838B8342
:103CB000EB81FC8183E280838B819C8101979C83D3
:103CC0008B838F8198859A8389838981EB81FC819D
:103CD00080838B819C8101979C838B8389819A81CE
:103CE000892F99279A8389838981EB81FC8180833D
:103CF0008B819C8101979C838B83EB81FC8186E285
:103D000080838B819C8101979C838B83EB81FC81D9
:103D100087E280838B819C8101979C838B83EB81DD
:103D2000FC8188E280838B819C8101979C838B83BB
:103D3000EB81FC8189E280838B819C8101979C834C
:103D40008B83EB81FC8180E380838B819C81019755
:103D50009C838B83EB81FC8181E380838B819C81BD
:103D600001979C838B838B819C8128960FB6F89456
:103D7000DEBF0FBECDBFCF91DF910895DF93CF930C
:103D8000CDB7DEB70E94B01FA0910807B091090718
:103D9000CD91CDBFDD91DEBFFF91EF91DF91CF914E
:103DA000BF91AF919F918F917F916F915F914F9153
:103DB0003F912F911F910F91FF90EF90DF90CF9047
:103DC000BF90AF909F908F907F906F905F904F903B
:103DD0003F902F901F900F900FBE0F90089581E09D
:103DE000CF91DF910895DF93CF93CDB7DEB7CF9119
:103DF000DF9108950F920FB6F8940F921F9211243D
:103E00002F923F924F925F926F927F928F929F92EA
:103E1000AF92BF92CF92DF92EF92FF920F931F93D8
:103E20002F933F934F935F936F937F938F939F93C2
:103E3000AF93BF93CF93DF93EF93FF93A0910807C6
:103E4000B09109070DB60D920EB60D920E9425365F
:103E5000A0910807B0910907CD91CDBFDD91DEBFDC
:103E6000FF91EF91DF91CF91BF91AF919F918F9192
:103E70007F916F915F914F913F912F911F910F9182
:103E8000FF90EF90DF90CF90BF90AF909F908F907A
:103E90007F906F905F904F903F902F901F900F906A
:103EA0000FBE0F9008950F920FB6F8940F921F92C5
:103EB00011242F923F924F925F926F927F928F9236
:103EC0009F92AF92BF92CF92DF92EF92FF920F93A9
:103ED0001F932F933F934F935F936F937F938F9392
:103EE0009F93AF93BF93CF93DF93EF93FF93A091F3
:103EF0000807B09109070DB60D920EB60D920E94FB
:103F00008E34882311F00E942536A0910807B091C5
:103F10000907CD91CDBFDD91DEBFFF91EF91DF911C
:103F2000CF91BF91AF919F918F917F916F915F9151
:103F30004F913F912F911F910F91FF90EF90DF9044
:103F4000CF90BF90AF909F908F907F906F905F9039
:103F50004F903F902F901F900F900FBE0F9008959D
:103F6000DF93CF9300D000D000D0CDB7DEB780E490
:103F70009FE1A0E0B0E08B839C83AD83BE838B8107
:103F80009C81AD81BE81689415F8B695A7959795EB
:103F900087951694D1F78B839C83AD83BE838B81E9
:103FA0009C81AD81BE810197A109B1098B839C835E
:103FB000AD83BE838B8189838B819C81AD81BE81E2
:103FC000892F9A2FAB2FBB278B839C83AD83BE8316
:103FD0008B818A83EBE4F0E08A818083EAE4F0E07D
:103FE000898180838BE08983EEE4F0E0898180839E
:103FF000E9E5F0E080818983898180618983E9E551
:10400000F0E08981808326960FB6F894DEBF0FBE5C
:10401000CDBFCF91DF9108950E94531F1895DF9374
:10402000CF9300D000D000D0CDB7DEB79D838C8376
:104030006E8381E08B838C819D819A8389838981C2
:104040009A81009709F48BC0E981FA81838D8823D6
:1040500009F485C0E981FA81838D282F30E08FEF44
:104060009FE7B9010E94CF46CB019C01E981FA810B
:10407000848D882F90E02817390708F470C00FB698
:10408000F8940F92E981FA8140815181E981FA81A6
:10409000838D282F30E0E981FA81848D882F90E08C
:1040A000BC01269FC001279F900D369F900D1124C3
:1040B000840F951FE981FA8195838483E981FA81D0
:1040C000128EE981FA8180819181E981FA8193835D
:1040D0008283E981FA8140815181E981FA81838D6E
:1040E000882F90E09C0121503040E981FA81848D35
:1040F000882F90E0BC01269FC001279F900D369F1E
:10410000900D1124840F951FE981FA81978386838E
:10411000E981FA818FEF858FE981FA818FEF868FB0
:104120008E81882379F4E981FA8180858823A1F042
:1041300089819A8108960E941937882369F00E9424
:10414000FA1E0AC089819A8108960E94051C8981FD
:104150009A8141960E94051C0F900FBE01C01B82E0
:104160008B8126960FB6F894DEBF0FBECDBFCF91E0
:10417000DF9108950F931F93DF93CF93CDB7DEB7F1
:1041800029970FB6F894DEBF0FBECDBF8F83688727
:1041900049871E821D828F81882309F452C08F8136
:1041A000282F30E08FEF9FE7B9010E94CF46CB0167
:1041B0009C018885882F90E02817390708F441C0B2
:1041C0008F81282F30E08885882F90E0AC01249FD4
:1041D000C001259F900D349F900D11245FE7813E13
:1041E000950778F58F81282F30E08885882F90E01B
:1041F000AC01249FC001259F900D349F900D112488
:104200009C838B838B819C814F960E94851B9E8310
:104210008D838D819E810097A1F08D819E819A83EF
:10422000898389819A814F969A83898329813A81EA
:10423000ED81FE818F816885A90129858F010E940A
:104240002E218D819E8129960FB6F894DEBF0FBE78
:10425000CDBFCF91DF911F910F9108950F931F93C1
:10426000DF93CF93CDB7DEB727970FB6F894DEBFB5
:104270000FBECDBF89836A835C834B832D831F83ED
:104280000E838A81882339F48E819F81EE81FF819C
:104290009183808306C08B819C81EE81FF81918315
:1042A0008083EE81FF818981838FEE81FF818A8106
:1042B000848F8E819F8161E00E940F2027960FB628
:1042C000F894DEBF0FBECDBFCF91DF911F910F914C
:1042D0000895DF93CF9300D000D0CDB7DEB78B83A6
:1042E0006C831A8219828B81882399F09C818B813F
:1042F000891778F08B8160E042E00E94BA209A83AF
:10430000898389819A81009721F0E981FA818C81E2
:10431000828F89819A810F900F900F900F90CF918B
:10432000DF910895DF93CF93CDB7DEB72F970FB608
:10433000F894DEBF0FBECDBF998788877B876A87D9
:104340005D874C872E871C82888599859A8389830F
:104350000FB6F8940F92E981FA81928DE981FA8182
:10436000838D981718F08E85823011F589819A8196
:104370002A853B85B9014E850E94E8258B83E9811A
:10438000FA818189882351F089819A8141960E941E
:104390001937882341F00E94FA1E05C08B818823BB
:1043A00011F00E94FA1E0F900FBE81E08F875CC053
:1043B0008C859D85009721F40F900FBE1F8654C0F9
:1043C0008C81882331F4CE0105960E94893981E0E1
:1043D0008C830F900FBE0E94B5320FB6F8940F92E7
:1043E000E981FA81858D8F3F19F4E981FA81158E73
:1043F000E981FA81868D8F3F19F4E981FA81168E61
:104400000F900FBECE0105969E01245F3F4FB9016C
:104410000E94A239882309F589819A810E94642724
:104420008823A1F089819A8108962C853D85B90160
:104430000E94923689819A810E94D5260E94C132BB
:10444000882309F085CF0E94FA1E82CF89819A8144
:104450000E94D5260E94C1327BCF89819A810E9419
:10446000D5260E94C1321F868F852F960FB6F894ED
:10447000DEBF0FBECDBFCF91DF910895DF93CF9305
:10448000CDB7DEB72D970FB6F894DEBF0FBECDBF08
:1044900098878F837A8769875C874B872D878F8181
:1044A00098859C838B831D82EB81FC81928DEB81AF
:1044B000FC81838D981718F08D85823081F5EB8112
:1044C000FC81868D8A83EB81FC81828D89838B813F
:1044D0009C8129853A85B9014D850E94E8258A810C
:1044E0008F3FA9F4EB81FC8181898823A9F08B811E
:1044F0009C8141960E941937882371F08B859C8599
:10450000009751F0EB85FC8581E0808305C08A81AE
:104510008F5FEB81FC81868F81E08E8301C01E82DC
:104520008E812D960FB6F894DEBF0FBECDBFCF9112
:10453000DF910895DF93CF93CDB7DEB72A970FB6FB
:10454000F894DEBF0FBECDBF98878F837A876987C7
:104550008F8198859C838B831D82EB81FC81828D6A
:104560008A83EB81FC81938D8A81891748F5EB81E1
:10457000FC81868D89838A818F5FEB81FC81828FAC
:1045800089818F3FA9F4EB81FC8181898823A9F07F
:104590008B819C8141960E941937882371F089850F
:1045A0009A85009751F0E985FA8581E0808305C0FE
:1045B00089818F5FEB81FC81868F81E08E8301C0D2
:1045C0001E828E812A960FB6F894DEBF0FBECDBF35
:1045D000CF91DF910895DF93CF93CDB7DEB72E97BC
:1045E0000FB6F894DEBF0FBECDBF998788877B8753
:1045F0006A875D874C871C82888599859B838A831F
:104600000FB6F8940F92EA81FB81828D89838981AC
:104610008823F9F08A819B812A853B85B9010E9414
:104620008E2689818150EA81FB81828FEA81FB811C
:104630008085882349F08A819B8108960E941937DA
:10464000882311F00E94FA1E0F900FBE81E08E8722
:1046500063C08C859D85009721F40F900FBE1E8648
:104660005BC08C81882331F4CE0105960E94893984
:1046700081E08C830F900FBE0E94B5320FB6F89484
:104680000F92EA81FB81858D8F3F19F4EA81FB81CE
:10469000158EEA81FB81868D8F3F19F4EA81FB81BB
:1046A000168E0F900FBECE0105969E01245F3F4FE0
:1046B000B9010E94A239882309F58A819B810E9451
:1046C00028278823A1F08A819B8141962C853D85EE
:1046D000B9010E9492368A819B810E94D5260E9450
:1046E000C132882309F08CCF0E94FA1E89CF8A81BB
:1046F0009B810E94D5260E94C13282CF8A819B81F4
:104700000E94D5260E94C1328A819B810E9428275F
:10471000882309F475CF1E868E852E960FB6F894E1
:10472000DEBF0FBECDBFCF91DF910895DF93CF9352
:10473000CDB7DEB72C970FB6F894DEBF0FBECDBF56
:10474000998788877B876A871C82888599859B8360
:104750008A830FB6F8940F92EA81FB81828D898358
:1047600089818823C1F089818150EA81FB81828F10
:10477000EA81FB818085882349F08A819B810896A4
:104780000E941937882311F00E94FA1E0F900FBE65
:1047900081E08C8763C08A859B85009721F40F9008
:1047A0000FBE1C865BC08C81882331F4CE01059638
:1047B0000E94893981E08C830F900FBE0E94B53230
:1047C0000FB6F8940F92EA81FB81858D8F3F19F423
:1047D000EA81FB81158EEA81FB81868D8F3F19F47A
:1047E000EA81FB81168E0F900FBECE0105969E01C9
:1047F000265F3F4FB9010E94A239882309F58A81BB
:104800009B810E9428278823A1F08A819B81419661
:104810002A853B85B9010E9492368A819B810E943C
:10482000D5260E94C132882309F093CF0E94FA1E38
:1048300090CF8A819B810E94D5260E94C13289CF68
:104840008A819B810E94D5260E94C1328A819B81E8
:104850000E942827882309F47CCF1C868C852C96FF
:104860000FB6F894DEBF0FBECDBFCF91DF91089594
:10487000DF93CF93CDB7DEB760970FB6F894DEBF66
:104880000FBECDBF9B878A877D876C875F874E87EA
:104890001E828A859B859B838A830FB6F8940F922C
:1048A000EA81FB81828D89838981882331F1EA81C4
:1048B000FB81868197819D838C838A819B812C8556
:1048C0003D85B9010E948E26EA81FB818C819D8104
:1048D00097838683EA81FB818189882349F08A81D5
:1048E0009B8141960E941937882311F00E94FA1E7D
:1048F0000F900FBE81E0888B63C08E859F850097E7
:1049000021F40F900FBE188A5BC08E81882331F48A
:10491000CE0107960E94893981E08E830F900FBEE9
:104920000E94B5320FB6F8940F92EA81FB81858D13
:104930008F3F19F4EA81FB81158EEA81FB81868D18
:104940008F3F19F4EA81FB81168E0F900FBECE01C6
:1049500007969E01225F3F4FB9010E94A23988232A
:1049600009F58A819B810E9428278823A1F08A81EA
:104970009B8141962E853F85B9010E9492368A819E
:104980009B810E94D5260E94C132882309F085CFE1
:104990000E94FA1E82CF8A819B810E94D5260E94A6
:1049A000C1327BCF8A819B810E94D5260E94C13271
:1049B0008A819B810E942827882309F46ECF188A58
:1049C000888960960FB6F894DEBF0FBECDBFCF9139
:1049D000DF910895DF93CF93CDB7DEB72C970FB655
:1049E000F894DEBF0FBECDBF98878F837A87698723
:1049F0005C874B878F8198859C838B831D82EB819D
:104A0000FC81828D8A838A81882381F1EB81FC81FC
:104A1000858D89838B819C8129853A85B9010E9486
:104A20008E268A818150EB81FC81828F89818F3F24
:104A3000A9F4EB81FC8180858823A9F08B819C817E
:104A400008960E941937882371F08B859C85009702
:104A500051F0EB85FC8581E0808305C089818F5F03
:104A6000EB81FC81858F81E08E8301C01E828E8167
:104A70002C960FB6F894DEBF0FBECDBFCF91DF915D
:104A80000895DF93CF93CDB7DEB72A970FB6F8948A
:104A9000DEBF0FBECDBF98878F837A8769878F81EE
:104AA00098859A8389831D82E981FA81828D882382
:104AB000B1F0E981FA81868197819C838B8389811A
:104AC0009A8129853A85B9010E948E26E981FA8169
:104AD0008B819C819783868381E08E8301C01E82B7
:104AE0008E812A960FB6F894DEBF0FBECDBFCF9150
:104AF000DF910895DF93CF9300D00F92CDB7DEB74B
:104B00009B838A830FB6F8940F92EA81FB81828D92
:104B100089830F900FBE89810F900F900F90CF91D6
:104B2000DF910895DF93CF9300D000D00F92CDB7DF
:104B3000DEB79D838C838C819D819A8389830FB698
:104B4000F8940F92E981FA81938DE981FA81828D3F
:104B5000292F281B822F8B830F900FBE8B810F90E4
:104B60000F900F900F900F90CF91DF910895DF93EA
:104B7000CF9300D000D00F92CDB7DEB79D838C834A
:104B80008C819D819A838983E981FA81828D8B83CF
:104B90008B810F900F900F900F900F90CF91DF911E
:104BA0000895DF93CF9300D000D0CDB7DEB79C83BC
:104BB0008B838B819C819A83898389819A810E94CE
:104BC000DF1B0F900F900F900F90CF91DF91089502
:104BD000DF93CF93CDB7DEB727970FB6F894DEBF3C
:104BE0000FBECDBF9C838B837E836D834F831A82E0
:104BF000EB81FC81828D8983EB81FC81848D88230C
:104C000009F47DC08F81882399F5EB81FC81628155
:104C10007381EB81FC81848D482F50E02D813E8192
:104C2000CB01B9010E943C47EB81FC812281338199
:104C3000EB81FC81848D882F90E0820F931FEB81A4
:104C4000FC8193838283EB81FC8122813381EB8120
:104C5000FC81848195812817390708F450C0EB81C5
:104C6000FC8180819181EB81FC819383828347C0A9
:104C7000EB81FC8166817781EB81FC81848D482FFB
:104C800050E02D813E81CB01B9010E943C47EB8170
:104C9000FC8126813781EB81FC81848D882F90E017
:104CA000909581959F4F820F931FEB81FC81978395
:104CB0008683EB81FC8126813781EB81FC818081B9
:104CC00091812817390790F4EB81FC81248135818B
:104CD000EB81FC81848D882F90E0909581959F4F8A
:104CE000820F931FEB81FC81978386838F818230B3
:104CF00031F48981882319F08981815089838981E0
:104D00008F5FEB81FC81828F8A8127960FB6F894A2
:104D1000DEBF0FBECDBFCF91DF910895DF93CF935C
:104D200000D000D0CDB7DEB79A8389837C836B83B4
:104D3000E981FA81848D882389F1E981FA812681CC
:104D40003781E981FA81848D882F90E0820F931F4B
:104D5000E981FA8197838683E981FA812681378107
:104D6000E981FA81848195812817390740F0E9812A
:104D7000FA8180819181E981FA8197838683E98133
:104D8000FA8146815781E981FA81848D282F30E0AC
:104D90008B819C81BA01A9010E943C470F900F9022
:104DA0000F900F90CF91DF910895DF93CF9300D0B4
:104DB00000D0CDB7DEB79C838B830FB6F8940F92EB
:104DC000EB81FC81868D8A8311C0EB81FC81818916
:104DD000882379F08B819C8141960E941937882322
:104DE00011F00E94093A8A8181508A838A811816BB
:104DF00064F3EB81FC818FEF868F0F900FBE0FB6AF
:104E0000F8940F92EB81FC81858D898311C0EB8131
:104E1000FC818085882379F08B819C8108960E9493
:104E20001937882311F00E94093A898181508983BA
:104E30008981181664F3EB81FC818FEF858F0F90C9
:104E40000FBE0F900F900F900F90CF91DF910895AC
:104E5000DF93CF9300D00F92CDB7DEB79B838A83C9
:104E60000FB6F8940F92EA81FB81828D882319F4A2
:104E700081E0898301C019820F900FBE89810F9054
:104E80000F900F90CF91DF910895DF93CF9300D0D3
:104E900000D00F92CDB7DEB79D838C838C819D812E
:104EA0009A838983E981FA81828D882319F481E0CC
:104EB0008B8301C01B828B810F900F900F900F90FE
:104EC0000F90CF91DF910895DF93CF9300D00F9291
:104ED000CDB7DEB79B838A830FB6F8940F92EA8131
:104EE000FB81928DEA81FB81838D981719F481E013
:104EF000898301C019820F900FBE89810F900F9096
:104F00000F90CF91DF910895DF93CF9300D000D021
:104F10000F92CDB7DEB79D838C838C819D819A8360
:104F20008983E981FA81928DE981FA81838D9817CD
:104F300019F481E08B8301C01B828B810F900F904D
:104F40000F900F900F90CF91DF9108950F93DF9303
:104F5000CF93CDB7DEB728970FB6F894DEBF0FBE5C
:104F6000CDBF9D838C837F836E8348878885813006
:104F700019F481E0898301C019828E819F81009795
:104F800021F481E090E09F838E838C819D819C0140
:104F9000205F3F4F8C819D818217930768F48C813D
:104FA0009D8101969D838C838C819D810F960E94AB
:104FB000851B9B838A8302C01B821A828A819B8104
:104FC000009789F06A817B818A819B819C01215FA6
:104FD0003F4F4C815D81EE81FF81CB01B9019F0183
:104FE00009810E942E2F8A819B8128960FB6F89402
:104FF000DEBF0FBECDBFCF91DF910F910895DF933C
:10500000CF9300D000D0CDB7DEB79C838B838B814C
:105010009C819A838983E981FA818685882F90E033
:1050200082709070009729F489819A810E94DF1B19
:1050300008C089819A8160E070E04FE050E00E94F2
:1050400045470F900F900F900F90CF91DF910895EB
:105050000F93DF93CF9300D000D00F92CDB7DEB780
:105060009D838C838C819D819B838A8319820FB65B
:10507000F8940F92EA81FB81808591850097F1F485
:10508000EA81FB81828593850097C1F4EA81FB81E7
:1050900024853585EA81FB8144815581EA81FB8144
:1050A000A681B781EA81FB81E6858A819B81B9016E
:1050B0009D010E2F0E942E2F81E089830F900FBE3D
:1050C00089810F900F900F900F900F90CF91DF91EB
:1050D0000F910895DF93CF93CDB7DEB727970FB623
:1050E000F894DEBF0FBECDBF9D838C837F836E831C
:1050F0008C819D819B838A838E819F81009721F47F
:1051000081E090E09F838E83EA81FB812481358159
:105110008E819F818217930748F4EA81FB818E81FB
:105120009F819783868381E0898301C01982898169
:1051300027960FB6F894DEBF0FBECDBFCF91DF919B
:105140000895DF93CF93CDB7DEB728970FB6F894C5
:10515000DEBF0FBECDBF98878F838F8198859E83DA
:105160008D83ED81FE81808191819A838983ED8198
:10517000FE8124813581ED81FE8180819181820FC4
:10518000931F9C838B83ED81FE81228133818B81F0
:105190009C81821B930B9C838B83ED81FE812081FC
:1051A000318189819A8128173907D9F68B819C81B1
:1051B00001979C838B83ED81FE81248135818B81D6
:1051C0009C818217930750F0ED81FE812481358107
:1051D0008B819C81821B930B9C838B838B819C8115
:1051E00028960FB6F894DEBF0FBECDBFCF91DF91EA
:1051F0000895DF93CF9300D000D000D0CDB7DEB7B5
:105200009E838D838D819E819C838B838B819C81EA
:105210000E94F42E9A83898389819A8126960FB6FB
:10522000F894DEBF0FBECDBFCF91DF910895CF922E
:10523000DF92EF92FF920F931F93DF93CF93CDB73F
:10524000DEB765970FB6F894DEBF0FBECDBF9F8760
:105250008E87798B688B5B8B4A8B3D8B2C8B8E85F5
:105260009F859A8789871E821D828A899B899C8354
:105270008B831A821982E985FA8584819581019749
:105280009A838983E985FA858685882F90E08170E5
:105290009070882379F08B819C8102969C838B830C
:1052A0002B813C8189819A818217930770F41D8A32
:1052B0001C8A0BC02B813C8189819A8182179307BC
:1052C00020F489819A819C838B838C899D890097A6
:1052D00009F443C0CE010B960E946B390FB6F894C7
:1052E0000F9289859A850E94A1289E838D832D81A6
:1052F0003E818B819C812817390768F580E090E01A
:1053000060E00E94BA410E94C73AE985FA85938716
:1053100082870F900FBEEC89FD8980E040E050E06D
:1053200060E070E000E010E020E030E0EE24FF24D8
:105330006F010E94B63BE985FA8513861286CE017D
:105340000B969E012C5E3F4FB9010E94A239882323
:1053500009F4C4CF02C00F900FBE8D819E810097CB
:1053600031F489859A850E94A1289E838D83898541
:105370009A85288939894A895B89ED81FE81AB81CB
:10538000BC81B9019F018D010E94872A98878F8374
:105390008F819885009741F189859A850E94F42E26
:1053A0009C01E985FA858681978128173907E0F005
:1053B0000E94B532E985FA8580859185009791F044
:1053C000E985FA858085918560E020E030E040E065
:1053D00050E000E0EE24FF240E94AD3CE985FA8510
:1053E000118610860E94C1328F81988565960FB60E
:1053F000F894DEBF0FBECDBFCF91DF911F910F910B
:10540000FF90EF90DF90CF900895CF92DF92EF92D0
:10541000FF920F931F93DF93CF93CDB7DEB76197C2
:105420000FB6F894DEBF0FBECDBF9B878A877D87FE
:105430006C875F874E87398B288B8A859B859987F8
:1054400088878E859F859B838A83E885F9858685F5
:10545000882F90E081709070882329F08A819B8149
:1054600002969B838A83888599850E94A1289D83C3
:105470008C83888599852C853D854E855F85EC815B
:10548000FD81AA81BB81B9019F018D010E94872AFC
:105490009F838E838E819F81009741F188859985B6
:1054A0000E94F42E9C01E885F98586819781281752
:1054B0003907E0F01982E885F985808591850097A4
:1054C000A9F0E885F98580859185E889F98960E00A
:1054D00020E030E040E050E000E0EE24FF246F01E7
:1054E0000E946B3EE885F985118610868E819F812A
:1054F00061960FB6F894DEBF0FBECDBFCF91DF919E
:105500001F910F91FF90EF90DF90CF9008950F9330
:105510001F93DF93CF93CDB7DEB760970FB6F894A4
:10552000DEBF0FBECDBF9C838B837E836D83588788
:105530004F833A8729871C870B87EB81FC81828107
:1055400093819A838983EB81FC818685882F90E003
:10555000817090708823D1F029853A858B859C8550
:105560002817390780F09E01295F3F4F8B819C816E
:10557000E981FA81B90142E050E09F010E94EC2DDF
:105580009A8389831AC018861F8217C02F81388595
:10559000388B2F8789859A859E878D872D853E85B7
:1055A0008F8598898217930720F42F8538893E8745
:1055B0002D878D859E8598878F838F81988500970D
:1055C00081F04D815E81EF81F8858B819C812981FD
:1055D0003A81BA01AF010E94EC2DEB81FC819383EB
:1055E00082838F81988560960FB6F894DEBF0FBED8
:1055F000CDBFCF91DF911F910F910895CF92DF9290
:10560000EF92FF920F931F93DF93CF93CDB7DEB747
:1056100060970FB6F894DEBF0FBECDBF9A8789871B
:105620007C876B875E874D87388B2F8789859A8526
:1056300098878F831E821D82EF81F8858685882F4B
:1056400090E081709070882329F082E090E09A8346
:10565000898302C01A8219828F859889009709F47C
:105660003FC00FB6F8940F928F8198850E94F42E58
:105670009C838B832B813C8189819A81821793073C
:1056800058F080E090E060E00E94BA410E94C73A82
:10569000EF81F885918780870F900FBE2B813C8129
:1056A00089819A818217930708F1EF85F88980E054
:1056B00040E050E060E070E000E010E020E030E02A
:1056C000EE24FF246F010E94B63BEF81F88511861E
:1056D00010868F8198850E94F42E9C838B8306C050
:1056E0008F8198850E94F42E9C838B832B813C8133
:1056F00089819A818217930770F58F8198852B8510
:105700003C854D855E85EB81FC81B9019F010E943E
:105710007D2C9E838D838D819E810097E1F00E9478
:10572000B532EF81F88582859385009791F0EF81FE
:10573000F8858285938560E020E030E040E050E02D
:1057400000E0EE24FF240E94AD3CEF81F885138633
:1057500012860E94C1328D819E8160960FB6F894A8
:10576000DEBF0FBECDBFCF91DF911F910F91FF9094
:10577000EF90DF90CF900895DF93CF93CDB7DEB752
:105780002A970FB6F894DEBF0FBECDBF9A878987E0
:1057900089859A859E838D83ED81FE818685882FFC
:1057A00090E081709070882319F18D819E810E9414
:1057B000F42E9A83898389819A8183309105A8F098
:1057C0009E01295F3F4FED81FE810190F081E02D28
:1057D0008D819E81B90142E050E09F010E946F2EB1
:1057E0008F8198859C838B8305C01C821B8202C09D
:1057F0001C821B828B819C812A960FB6F894DEBF97
:105800000FBECDBFCF91DF910895CF92DF92EF927F
:10581000FF920F93DF93CF93CDB7DEB761970FB6AB
:10582000F894DEBF0FBECDBF9B878A877D876C87CC
:105830005F874E87398B288B8A859B8599878887D8
:105840001F821E82E885F9858685882F90E0817009
:105850009070882329F082E090E09B838A8302C0C5
:105860001B821A82888599850E94F42E9D838C83E1
:105870002C813D818A819B818217930770F58885F1
:1058800099852C853D854E855F85EC81FD81B9012B
:105890009F010E947D2C9F838E838E819F81009724
:1058A000E1F01982E885F985828593850097A9F052
:1058B000E885F98582859385E889F98960E020E0AB
:1058C00030E040E050E000E0EE24FF246F010E9451
:1058D0006B3EE885F985138612868E819F816196DD
:1058E0000FB6F894DEBF0FBECDBFCF91DF910F9101
:1058F000FF90EF90DF90CF900895DF93CF93CDB7D7
:10590000DEB764970FB6F894DEBF0FBECDBF9A879F
:1059100089877C876B875E874D87388B2F87E985E2
:10592000FA85808191819A838983E985FA858685C4
:10593000882F90E081709070882311F19E01295F7B
:105940003F4F89859A85E981FA81B90142E050E0AB
:105950009F010E946F2E9A8389838F8198859C83F3
:105960008B838F8598890297988B8F872B813C81B9
:105970008D859E858217930738F41C821B8204C094
:105980008D859E859C838B832B813C813C8B2B8BCF
:105990008F8598899A8B898B29893A898B899C89EB
:1059A0008217930720F42B893C893A8B298B8989AC
:1059B0009A899E838D838D819E81009789F04B8586
:1059C0005C8589859A852D813E81E981FA81BA01BC
:1059D000A9019F010E946F2EE985FA85918380833A
:1059E0008D819E8164960FB6F894DEBF0FBECDBF49
:1059F000CF91DF910895DF93CF93CDB7DEB727978F
:105A00000FB6F894DEBF0FBECDBF9F838E838E810D
:105A10009F819D838C83EC81FD81808191819A831C
:105A20008983EC81FD812281338189819A812817C4
:105A3000390719F481E08B8301C01B828B81279683
:105A40000FB6F894DEBF0FBECDBFCF91DF910895A2
:105A5000DF93CF93CDB7DEB727970FB6F894DEBFAD
:105A60000FBECDBF9F838E838E819F819A83898352
:105A7000E981FA818685882F90E081709070882373
:105A800029F082E090E09C838B8302C01C821B8201
:105A90008E819F810E94A1289C018B819C8182170D
:105AA000930718F081E08D8301C01D828D812796B8
:105AB0000FB6F894DEBF0FBECDBFCF91DF91089532
:105AC000CF92DF92EF92FF920F93DF93CF93CDB7F8
:105AD000DEB728970FB6F894DEBF0FBECDBF9E830A
