:100000000C942A000C9447000C9447000C94470071
:100010000C9447000C9447000C9447000C94E009A2
:100020000C9447000C9447000C9447000C94470034
:100030000C9447000C9447000C9447000C94470024
:100040000C9447000C9447000C9447000C94470014
:100050000C94470011241FBECFE5D8E0DEBFCDBF12
:1000600011E0A0E6B0E0EEE6F3E402C005900D92E8
:10007000A830B107D9F717E0A8E0B1E001C01D92A0
:10008000A534B107E1F70E94D1200C94B5210C945E
:10009000000081B18C7F81B988E480B9089584EA39
:1000A00086BF06B607FEFDCF81B1887F8830E1F7B5
:1000B000089584EA86BF06B607FEFDCF81B1887F2A
:1000C0008031E1F7089583B984E886BF06B607FE5C
:1000D000FDCF70E081B190E0887F90708617970720
:1000E000C9F7089583B984E886BF06B607FEFDCF39
:1000F00070E081B190E0887F907086179707C9F70C
:10010000089584E986BF089582B9089584EC86BF76
:1001100006B607FEFDCF81B1887F8035E1F783B158
:10012000089594EC04C096BF06B607FEFDCF81B1DA
:10013000887F8036C1F70895882359F084E886BF08
:1001400006B607FEFDCF81B1887F8835E1F783B120
:10015000089584EC86BF06B607FEFDCF81B1887F87
:100160008035E1F783B108951ABA17BA14BA80E45A
:1001700081BB1BBA88E088BB15BA12BA08956830F3
:1001800008F0C7C08130C1F1813038F0823009F405
:1001900062C0833009F0BDC08DC0413031F04130C4
:1001A00078F0423009F0B5C017C02AB381E090E082
:1001B00002C0880F991F6A95E2F7282B2ABBA7C0B7
:1001C0002AB381E090E002C0880F991F6A95E2F798
:1001D000809582238ABB9BC03AB381E090E002C045
:1001E000880F991F6A95E2F7282F209523232ABBB1
:1001F0002BB3822B8BBB8BC0413031F0413078F078
:10020000423009F086C017C027B381E090E002C0F9
:10021000880F991F6A95E2F7282B27BB78C027B370
:1002200081E090E002C0880F991F6A95E2F78095FF
:10023000822387BB6CC037B381E090E002C0880F97
:10024000991F6A95E2F7282F2095232327BB28B30F
:10025000822B88BB5CC0413031F0413078F04230B5
:1002600009F057C017C024B381E090E002C0880FA6
:10027000991F6A95E2F7282B24BB49C024B381E07B
:1002800090E002C0880F991F6A95E2F7809582235B
:1002900084BB3DC034B381E090E002C0880F991F59
:1002A0006A95E2F7282F2095232324BB25B3822BC0
:1002B00085BB2DC0413029F0413070F0423049F506
:1002C00017C021B381E090E002C0880F991F6A95A2
:1002D000E2F7282B21BB1BC021B381E090E002C0D4
:1002E000880F991F6A95E2F78095822381BB0FC022
:1002F00031B381E090E002C0880F991F6A95E2F760
:10030000282F2095232321BB22B3822B82BB81E09F
:10031000089580E00895683008F07EC0813031F1A2
:10032000813038F0823009F43EC0833009F074C067
:1003300056C0442321F0413009F06EC00CC02BB3ED
:1003400081E090E002C0880F991F6A95E2F78095DE
:1003500082238BBB5FC02BB381E090E002C0880F8B
:10036000991F6A95E2F7282B2BBB54C0442321F038
:10037000413009F051C00CC028B381E090E002C0C8
:10038000880F991F6A95E2F78095822388BB42C047
:1003900028B381E090E002C0880F991F6A95E2F7C8
:1003A000282B28BB37C0442319F04130A9F50CC0D5
:1003B00025B381E090E002C0880F991F6A95E2F7AB
:1003C0008095822385BB26C025B381E090E002C0E2
:1003D000880F991F6A95E2F7282B25BB1BC0442381
:1003E00019F04130C9F40CC022B381E090E002C0A2
:1003F000880F991F6A95E2F78095822382BB0AC015
:1004000022B381E090E002C0880F991F6A95E2F75D
:10041000282B22BB81E0089580E00895FA0168301E
:10042000E8F441155105D1F0813049F0813028F0D0
:10043000823039F0833091F406C089B305C086B3A9
:1004400003C083B301C080B390E002C09595879547
:100450006A95E2F78170808381E0089580E00895D5
:100460006830B0F5813091F0813028F08230C9F0E9
:10047000833071F521C02BB381E090E002C0880F7A
:10048000991F6A95E2F728272BBB20C028B381E08B
:1004900090E002C0880F991F6A95E2F7282728BBD1
:1004A00015C025B381E090E002C0880F991F6A95BE
:1004B000E2F7282725BB0AC022B381E090E002C002
:1004C000880F991F6A95E2F7282722BB81E00895DB
:1004D00080E008958130C1F0813030F0823021F128
:1004E000833009F042C030C0613029F0613030F013
:1004F0006230D9F505C08FEF8ABB35C01ABA33C058
:100500001ABA8FEF8BBB2FC0613029F0613030F009
:10051000623059F505C08FEF87BB25C017BA23C0DD
:1005200017BA8FEF88BB1FC0613029F0613030F0FF
:100530006230D9F405C08FEF84BB15C014BA13C064
:1005400014BA8FEF85BB0FC0613029F0613030F0F5
:10055000623059F405C08FEF81BB05C011BA03C0EA
:1005600011BA8FEF82BB81E0089580E00895813059
:1005700051F0813030F0823041F0833049F080E03A
:1005800008956BBB03C068BB01C065BB81E00895E3
:1005900062BB81E00895FB016115710599F081301E
:1005A00049F0813028F0823039F0833059F406C0A8
:1005B00089B305C086B303C083B301C080B3808311
:1005C00081E0089580E00895813079F0813028F04D
:1005D000823099F0833001F518C08BB387788BBBDC
:1005E0008BB36695862B8BBB089588B3877888BBC1
:1005F00088B36695862B88BB089585B3877885BBBD
:1006000085B36695862B85BB089582B3877882BBB8
:1006100082B36695862B82BB0895EF92FF920F936B
:100620001F93082F80E061E041E00E948B01602F62
:10063000607F81E00E94E40280E063E041E00E948C
:100640008B0190E1E92E97E2F92EC7010197F1F7AE
:1006500080E063E040E00E948B0110E084E0000F46
:10066000111F8A95E1F781E0602F0E94E40280E08B
:1006700063E041E00E948B01C7010197F1F780E040
:1006800063E040E00E948B011F910F91FF90EF907B
:1006900008950E940D030895AF92BF92CF92DF920A
:1006A000EF92FF920F931F93DF93CF93CDB7DEB7F7
:1006B0002C970FB6F894DEBF0FBECDBF6B017C0147
:1006C00010E05E010894A11CB11C1DC0C501810F82
:1006D000911D9C878B87C701B6012AE030E040E07E
:1006E00050E00E948321EB85FC8560831F5FC7017A
:1006F000B6012AE030E040E050E00E948321C901C9
:10070000DA016C017D01C114D104E104F104F1F6B8
:10071000012F01507E010894E11CF11CF701E00F4C
:10072000F11D8081805D0E940D03002311F00150B6
:10073000F5CF2C960FB6F894DEBF0FBECDBFCF918C
:10074000DF911F910F91FF90EF90DF90CF90BF90BE
:10075000AF9008951F93CF93DF93EC0110E003C097
:100760000E940D031F5FFE01E10FF11D80818823B0
:10077000B9F7DF91CF911F9108951F93182F80E053
:1007800061E040E00E948B0181E0612F0E94E40261
:1007900080E063E041E00E948B0180E197E20197F5
:1007A000F1F780E063E040E00E948B011F91089523
:1007B000EF92FF920F931F93CF93DF937C01062F4D
:1007C00010E0085F1F4F23E0000F111F2A95E1F78B
:1007D000802F807F0E94BD03802F8295807F0E94A2
:1007E000BD03C0E0D0E0F701EC0FFD1F80810E9447
:1007F0000D032196C730D105B1F780E80E94BD03F3
:1008000080E00E94BD03DF91CF911F910F91FF9077
:10081000EF9008951F93603198F4882319F0813088
:1008200079F403C0162F105802C0162F1054812FD0
:10083000807F0E94BD03812F8295807F0E94BD032F
:100840001F91089580E00E94BD0380E10E94BD03D6
:1008500008950F931F9381E063E041E00E94BF0081
:1008600081E064E041E00E94BF0081E065E041E09A
:100870000E94BF0081E066E041E00E94BF0080E08E
:1008800061E041E00E94BF0080E062E041E00E9440
:10089000BF0080E063E041E00E94BF0080E69AEE86
:1008A0000197F1F780E20E94BD0380E20E94BD0340
:1008B00080E80E94BD0300EA1FE0C8010197F1F73C
:1008C00080E00E94BD0380EE0E94BD03C801019735
:1008D000F1F780E00E94BD0380E10E94BD03C801E2
:1008E0000197F1F780E00E94BD0380E60E94BD03FE
:1008F000C8010197F1F71F910F9108954F925F92F0
:100900006F927F929F92AF92BF92CF92DF92EF92BF
:10091000FF920F931F93DF93CF93CDB7DEB761970D
:100920000FB6F894DEBF0FBECDBFDE011296E8EF22
:10093000F0E080E101900D928150E1F799249A94C2
:10094000EE24FF2432E0432E512C4C0E5D1E5E013E
:100950000894A11CB11C20E2622E2EE4722E92E0BB
:10096000C92ECE0C83E06C2D40E00E948B018201E9
:100970000E0D1F1D84E0D82E82E06D2DA5010E9472
:100980000E028981882371F4F801908005C082E00D
:100990006D2DA5010E940E0289818823C1F3C30138
:1009A0000197F1F7D3940C5F1F4FF8E0DF1621F7A2
:1009B00083E06C2D41E00E948B010894E11CF11C46
:1009C00084E0E816F10459F6892D61960FB6F89483
:1009D000DEBF0FBECDBFCF91DF911F910F91FF9072
:1009E000EF90DF90CF90BF90AF909F907F906F90EF
:1009F0005F904F90089583E062E041E00E94BF0065
:100A000083E063E041E00E94BF0083E064E041E0F6
:100A10000E94BF0083E065E041E00E94BF0082E0E9
:100A200064E042E00E94BF0082E065E042E00E9494
:100A3000BF0082E066E042E00E94BF0082E067E023
:100A400042E00E94BF0083E062E041E00E948B012F
:100A500083E063E041E00E948B0183E064E041E0D9
:100A60000E948B0183E065E041E00E948B010895C4
:100A70009C01CB01820F931F809720F020E230E091
:100A8000261B370BC90108950F931F938C010E94F9
:100A90004F0080EA68E10E946300812F68E20E94B3
:100AA0007200802F68E20E9472000E94590081EA61
:100AB00060E40E94630081E00E949C00182F0E9465
:100AC000810082E08A95F1F7812F1F910F9108959F
:100AD000AF92BF92CF92DF92EF92FF921F93CF938C
:100AE000DF935B016A017C0185E0EE0CFF1C8A95B7
:100AF000E1F710E009C0CE018E0D9F1D0E94440554
:100B0000CA0DDB1D88831F5FC12FD0E0CC15DD052A
:100B100090F3DF91CF911F91FF90EF90DF90CF90F6
:100B2000BF90AF9008958F929F92AF92BF92CF9255
:100B3000DF92EF92FF921F93CF93DF934C01EE244D
:100B4000FF24C70101960E944405182FC701029691
:100B50000E944405B12EAA2490E08A299B29F40121
:100B600091838083C70103960E944405182FC70113
:100B700004960E944405D12ECC2490E08C299D2916
:100B8000F40193838283C70105960E944405182FC0
:100B900086E090E0E80EF91EC7010E944405D12FBF
:100BA000C0E090E08C2B9D2BF4019583848386E03C
:100BB00090E0880E991E9EE1E916F10411F6DF918E
:100BC000CF911F91FF90EF90DF90CF90BF90AF90AB
:100BD0009F908F900895FF920F931F93182F092FC6
:100BE000F62E0E944F0080EA68E10E946300802F89
:100BF00068E20E947200812F68E20E9472008F2DCD
:100C000068E20E9472000E94810082E08A95F1F7FA
:100C10001F910F91FF900895CF92DF92EF92FF9274
:100C20001F93CF93DF936B017A01EC0195E0CC0F1A
:100C3000DD1F9A95E1F710E009C0F601E80FF91FF2
:100C40008C0F9D1F60810E94EB051F5F812F90E03C
:100C50008E159F0590F3DF91CF911F91FF90EF903C
:100C6000DF90CF900895EF92FF920F931F93DF9341
:100C7000CF93CDB7DEB7A0970FB6F894DEBF0FBE07
:100C8000CDBF7C018E010F5F1F4FC8016FEF70E079
:100C900040E250E00E94AE21C701B80140E250E0BE
:100CA0000E940C06A0960FB6F894DEBF0FBECDBF13
:100CB000CF91DF911F910F91FF90EF900895EF92E8
:100CC000FF920F931F93CF93DF93182F092F80E08C
:100CD00090E065E00E94EB05212F302FC9017C01D7
:100CE000C1E0D0E0F7016181CE010E94EB05CE01A9
:100CF0000196F70160810E94EB05F7016381CE0147
:100D000002960E94EB05CE010396F70162810E94D4
:100D1000EB058E010B5F1F4FF7016581CE01049635
:100D20000E94EB052696C801F70164810E94EB053D
:100D300086E090E0E80EF91ECF31D10599F6DF91FB
:100D4000CF911F910F91FF90EF9008950E9449005D
:100D50000895FC010FB6F8940F92208131816095BF
:100D6000709562237323718360830F900FBEC90156
:100D70000895FC01808191810895BA010E94A9061D
:100D80000895CF93DF93EC010E946C1306C08F810E
:100D9000988560E072E00E9496158A818823B9F7F1
:100DA000CE010E9431080E946819DF91CF91089509
:100DB000CF92DF92EF92FF920F931F93CF93DF9327
:100DC000EC018B0185E0E82EF12CEC0EFD1E0E945B
:100DD0006C13EF81F88588819981802B912B998301
:100DE000888300E010E024C0D280C380808191819C
:100DF000BC016070AC0150702881398192FD05C042
:100E000024233523232B31F40FC024233523241727
:100E1000350751F470FF02C0042B152B68817981CE
:100E20007260CF010E9496158D2D9C2D9C01F901B9
:100E3000EE15FF05C9F600951095888199818023EC
:100E40009123998388830E94681988819981DF9111
:100E5000CF911F910F91FF90EF90DF90CF90089569
:100E6000BA010E94D8060895AF92BF92CF92DF9246
:100E7000EF92FF920F931F93CF93DF936C017B014F
:100E8000A42EB22E0E946C13F60120813181C7017D
:100E900082239323BB2021F4892B09F05AC004C07C
:100EA0008E159F0509F455C00115110559F4E90186
:100EB0001BC0C7018095909582239323F6019183EF
:100EC00080834AC0AA2019F060E071E002C060E0AF
:100ED00070E0B11074606E297F29C6010296A801E6
:100EE0000E94B01BC0E0D0E00E946819012B29F1DC
:100EF000882311F40E94E3090E948A1691FD1BC009
:100F00000FB6F8940F92F601808191819701282302
:100F10003923BB2019F4232B19F50BC02E153F05DF
:100F200041F41EC0E094F094E822F922F601F18227
:100F3000E0820F900FBEEC01D070CE01DF91CF9117
:100F40001F910F91FF90EF90DF90CF90BF90AF90E7
:100F50000895AA2009F0ADCFE90100E010E0C4CF68
:100F6000AA2001F7E6CFAF92BF92CF92DF92EF9225
:100F7000FF920F931F93CF93DF936C018B017A0144
:100F800059010E946C13F601C081D181C601B801DC
:100F90000E94D806C02BD12BC7018C239D238E1510
:100FA0009F0569F4970120953095F6018081918124
:100FB0008223932391838083AA24BB2410C0A1148D
:100FC000B10451F0B7017560C6010296A5010E94F7
:100FD000B01BC0E0D0E003C0F601C081D1810E9407
:100FE0006819AB28F9F0882311F40E94E3090E94E4
:100FF0008A169C0191FD14C00FB6F8940F92F60169
:1010000020813181C701822393238E159F0531F4FE
:10101000E094F094E222F322F182E0820F900FBE7E
:10102000E901D070CE01DF91CF911F910F91FF9018
:10103000EF90DF90CF90BF90AF900895CF93DF9364
:101040008BE090E00E944108EC01009731F0FC0138
:1010500011921192CF010E947508CE01DF91CF91BC
:10106000089508951092090110920801089527E744
:1010700035E08091080190910901281B390BC901C5
:101080000895CF93DF93EC010E946C1380910A01C5
:1010900090910B01892B31F48CE091E090930B013E
:1010A00080930A012097C9F020910801309109012D
:1010B000CE01820F931F45E08737940770F42817FD
:1010C000390758F4C0910A01D0910B01C20FD31F08
:1010D000909309018093080102C0C0E0D0E00E9413
:1010E0006819CE01DF91CF910895FC019C012D5F1D
:1010F0003F4F328321838FEF9FEF94838383368327
:1011000025833087278310820895FC01118610867D
:101110000895AC01FC01A181B281FB01B383A283DC
:1011200014968D919C911597958384831496ED91D7
:10113000FC9115977383628315967C936E93149735
:10114000FB0151874087FA0180818F5F808308957A
:10115000CF93DF939C01EB01488159818FEF4F3F83
:10116000580721F4F901A781B0850DC0D901139664
:101170001296ED91FC911397808191814817590740
:1011800010F0DF01F5CF1296ED91FC911397FB83E0
:10119000EA83D583C483BD83AC831396DC93CE935B
:1011A000129739872887F90180818F5F8083DF91CB
:1011B000CF910895CF93DF93DC011896CD91DC9108
:1011C000199712964D915C91139714968D919C915D
:1011D0001597FA019583848314962D913C91159768
:1011E000F9015383428389819A818A179B0711F4FD
:1011F0003A83298319961C921E92189788818150F0
:1012000088838881DF91CF910895FC0191E19083DB
:1012100022E2229383E3829362937293129280E894
:101220008293129282E0829383E0829384E082939D
:1012300085E0829386E0829387E0829388E08293C0
:1012400089E0829380E18293929382E1829383E1A9
:10125000829384E1829385E1829386E1829387E1A0
:10126000829388E1829389E1829380E2829381E292
:101270008293229383E282934293529386E28293F3
:1012800087E2829388E2829389E2829380E3829369
:1012900081E382933197CF0108951BBC8CE78ABD0F
:1012A0008BE08EBD89B7806189BFA0918406B09123
:1012B0008506CD91CDBFDD91DEBFFF91EF91DF912E
:1012C000CF91BF91AF919F918F917F916F915F91DE
:1012D0004F913F912F911F910F91FF90EF90DF90D1
:1012E000CF90BF90AF909F908F907F906F905F90C6
:1012F0004F903F902F901F900F900FBE0F9008952A
:1013000081E0089508950F920FB6F8940F921F92FE
:1013100011242F923F924F925F926F927F928F9201
:101320009F92AF92BF92CF92DF92EF92FF920F9374
:101330001F932F933F934F935F936F937F938F935D
:101340009F93AF93BF93CF93DF93EF93FF93A091BE
:101350008406B09185060DB60D920EB60D920E94D0
:101360009113882311F00E94A914A0918406B091D2
:101370008506CD91CDBFDD91DEBFFF91EF91DF916D
:10138000CF91BF91AF919F918F917F916F915F911D
:101390004F913F912F911F910F91FF90EF90DF9010
:1013A000CF90BF90AF909F908F907F906F905F9005
:1013B0004F903F902F901F900F900FBE0F90089569
:1013C0000E94830918950F920FB6F8940F921F92FE
:1013D00011242F923F924F925F926F927F928F9241
:1013E0009F92AF92BF92CF92DF92EF92FF920F93B4
:1013F0001F932F933F934F935F936F937F938F939D
:101400009F93AF93BF93CF93DF93EF93FF93A091FD
:101410008406B09185060DB60D920EB60D920E940F
:10142000A914A0918406B0918506CD91CDBFDD9120
:10143000DEBFFF91EF91DF91CF91BF91AF919F916F
:101440008F917F916F915F914F913F912F911F915C
:101450000F91FF90EF90DF90CF90BF90AF909F9053
:101460008F907F906F905F904F903F902F901F9044
:101470000F900FBE0F900895FC010FB6F8940F92D5
:10148000828D0F900FBE0895FC010FB6F8940F9255
:10149000928D0F900FBE838D891B0895FC01828D64
:1014A0000895FC01828D90E0882309F491E0892F52
:1014B0000895FC01928D20E0838D981709F421E0B6
:1014C000822F08950E9431080895FC01562FA72FFE
:1014D000248D2223B9F086819781820F911D9783F5
:1014E0008683248135818217930720F08081918142
:1014F00097838683448D66817781852F9A2F50E06C
:101500000E94A52108950F931F93CF93DF93EC01C1
:101510008A8D882341F00E811F81CE010E94650AC9
:101520001F830E8381E0DF91CF911F910F9108956A
:101530000F931F93CF93DF93EC01042F1A8D4C8DE3
:101540004423C1F10023B1F48A819B8150E00E94C1
:10155000A5218C8D2A813B81280F311D3B832A8355
:101560008C819D812817390728F1888199819B8377
:101570008A8320C08E819F8150E00E94A5218C8D9E
:1015800090E044275527481B590B8E819F81840F7B
:10159000951F9F838E83288139818217930730F4AA
:1015A0008C819D81840F951F9F838E83023011F45F
:1015B000111111501F5F1A8F80E0DF91CF911F91A1
:1015C0000F910895EF92FF920F931F93CF93DF93A4
:1015D000EC017A011A8D112311F480E01AC00D8DEF
:1015E0000E94650A11501A8F0F3F81F48885882365
:1015F00079F0CE0108960E94E314882349F0E114A3
:10160000F10431F081E0F701808303C00F5F0D8F9B
:1016100081E0DF91CF911F910F91FF90EF9008959E
:10162000CF93DF93FC01EB01928D838D981710F01F
:1016300080E016C0868D9F5F928F8F3F71F4818905
:10164000882369F0CF0141960E94E314882339F082
:10165000209729F081E0888303C08F5F868F81E027
:10166000DF91CF910895EF92FF921F93CF93DF9375
:10167000EC017A019A8D8B8D981720F0223011F0B1
:1016800080E01BC01E8D8A8DCE01422F0E94980AD9
:101690001F3F81F48989882379F0CE0141960E9409
:1016A000E314882349F0E114F10431F081E0F701FB
:1016B000808303C01F5F1E8F81E0DF91CF911F9158
:1016C000FF90EF900895EF92FF921F93CF93DF93D7
:1016D000EC010FB6F8940F921E8D91E1E92EF12CDA
:1016E000EC0EFD1E0BC08989882351F0C7010E94B2
:1016F000E314882311F00E948016115011169CF3F8
:101700008FEF8E8F0F900FBE0FB6F8940F921D8D36
:1017100088E0E82EF12CEC0EFD1E0BC08885882396
:1017200051F0C7010E94E314882311F00E94801633
:10173000115011169CF38FEF8D8F0F900FBEDF911C
:10174000CF911F91FF90EF9008958F929F92AF924B
:10175000BF92CF92DF92EF92FF920F931F93DF938E
:10176000CF9300D000D00F92CDB7DEB77C015B01E4
:101770005D834C8341E1C42ED12CC80ED91E20E0DC
:101780008E010F5F1F4F34E0832E912C8C0E9D1E17
:1017900001C021E00FB6F8940F92F701828D8823E3
:1017A000B9F006811781C701B5010E94650AF701EA
:1017B000178306838189882339F0C6010E94E314C8
:1017C000882311F00E94E3090F900FBE81E054C0FE
:1017D0008C819D81892B21F40F900FBE80E04CC03D
:1017E000222319F4C8010E9440160F900FBE0E94D8
:1017F0006C130FB6F8940F92F701858D8F3F09F4A3
:10180000158EF701868D8F3F09F4168E0F900FBE4F
:10181000C801B4010E944B168823F9F40FB6F8945E
:101820000F92F701828D0F900FBE882381F46C8197
:101830007D81C6010E943A1CC7010E94630B0E9471
:101840006819882309F0A5CF0E94E309A2CFC70138
:101850000E94630B0E9468199CCFC7010E94630B12
:101860000E9468190FB6F8940F92F701828D0F90BD
:101870000FBE882309F08DCF0F900F900F900F901F
:101880000F90CF91DF911F910F91FF90EF90DF901C
:10189000CF90BF90AF909F908F900895AF92BF92DE
:1018A000CF92DF92EF92FF920F931F93DF93CF932C
:1018B00000D000D00F92CDB7DEB78C017D836C8352
:1018C00061E1E62EF12CE80EF91E20E06E0108948D
:1018D000C11CD11C54E0A52EB12CAC0EBD1E01C004
:1018E00021E00FB6F8940F92F801828D882389F0D9
:1018F0008150828F8085882341F0C80108960E941C
:10190000E314882311F00E94E3090F900FBE81E0D9
:1019100054C08C819D81892B21F40F900FBE80E0F3
:101920004CC0222319F4C6010E9440160F900FBE2E
:101930000E946C130FB6F8940F92F801858D8F3FBB
:1019400009F4158EF801868D8F3F09F4168E0F90DD
:101950000FBEC601B5010E944B168823F9F40FB6DD
:10196000F8940F92F801828D0F900FBE882381F4B6
:101970006C817D81C7010E943A1CC8010E94630BE3
:101980000E946819882309F0ABCF0E94E309A8CF11
:10199000C8010E94630B0E946819A2CFC8010E946F
:1019A000630B0E9468190FB6F8940F92F801828DAC
:1019B0000F900FBE882309F093CF0F900F900F90D8
:1019C0000F900F90CF91DF911F910F91FF90EF90AB
:1019D000DF90CF90BF90AF9008956F927F928F92DB
:1019E0009F92AF92BF92CF92DF92FF920F931F937D
:1019F000DF93CF9300D000D00F92CDB7DEB78C012C
:101A00005B015D834C83E1E1CE2ED12CC80ED91E43
:101A100020E04E010894811C911C74E0672E712C0B
:101A20006C0E7D1E01C021E00FB6F8940F92F801F4
:101A3000F28CFF20B1F0C801B5010E94650AFA944A
:101A4000F801F28E8085882341F0C80108960E9433
:101A5000E314882311F00E94E3090F900FBE81E088
:101A600054C08C819D81892B21F40F900FBE80E0A2
:101A70004CC0222319F4C4010E9440160F900FBEDF
:101A80000E946C130FB6F8940F92F801858D8F3F6A
:101A900009F4158EF801868D8F3F09F4168E0F908C
:101AA0000FBEC401B3010E944B168823F9F40FB690
:101AB000F8940F92F801828D0F900FBE882381F465
:101AC0006C817D81C6010E943A1CC8010E94630B93
:101AD0000E946819882309F0A6CF0E94E309A3CFCA
:101AE000C8010E94630B0E9468199DCFC8010E9423
:101AF000630B0E9468190FB6F8940F92F801828D5B
:101B00000F900FBE882309F08ECF0F900F900F908B
:101B10000F900F90CF91DF911F910F91FF90DF9069
:101B2000CF90BF90AF909F908F907F906F900895CF
:101B30006F927F929F92AF92BF92CF92DF92EF927D
:101B4000FF920F931F93DF93CF9300D000D00F929B
:101B5000CDB7DEB78C016B015D834C83922EA8E07C
:101B6000EA2EF12CE80EF91E20E05E010894A11C7B
:101B7000B11CF4E06F2E712C6C0E7D1E01C021E0B3
:101B80000FB6F8940F92F801928D838D981718F084
:101B9000F2E09F16C9F4C801B601492D0E94980AC7
:101BA000982FF8018189882339F0C80141960E9455
:101BB000E314882329F002C0992311F00E94E3095D
:101BC0000F900FBE81E04CC08C819D81892B19F450
:101BD0000F900FBE44C0222319F4C5010E94401685
:101BE0000F900FBE0E946C130FB6F8940F92F8017D
:101BF000858D8F3F09F4158EF801868D8F3F09F48E
:101C0000168E0F900FBEC501B3010E944B1688239C
:101C100009F50FB6F8940F92F801928D0F900FBE50
:101C2000F801838D981781F46C817D81C7010E9432
:101C30003A1CC8010E94630B0E946819882309F0AE
:101C40009ECF0E94E3099BCFC8010E94630B0E94B4
:101C5000681995CFC8010E94630B0E94681980E043
:101C60000F900F900F900F900F90CF91DF911F91D9
:101C70000F91FF90EF90DF90CF90BF90AF909F902B
:101C80007F906F900895CF93DF93EC01E62F00973C
:101C900009F44FC02B8D222309F44BC03C8D8FEFEC
:101CA0009FE7622F70E00E946F21832F90E06817FA
:101CB000790708F43EC00FB6F8940F92329FC00126
:101CC000112448815981840F951F9D838C831A8E1E
:101CD0005B834A832B8D30E0215030408C8D90E027
:101CE000BC01269FC001279F900D369F900D1124A7
:101CF000480F591F5F834E838FEF8D8F8E8FEE239A
:101D000061F48885882389F0CE0108960E94E31447
:101D1000882359F00E94E30908C0CE0108960E946A
:101D20007508CE0141960E9475080F900FBE81E0A4
:101D300001C080E0DF91CF9108950F931F93CF935F
:101D4000DF93182F062F882341F18FEF9FE7612F34
:101D500070E00E946F21802F90E068177907E8F00B
:101D6000019FC00111242FE7813E9207B0F44F96E6
:101D70000E944108FC01EC01009789F0002319F44E
:101D80009183808303C04F9691838083138F048F48
:101D9000CF0161E00E94430E02C0C0E0D0E0CE015E
:101DA000DF91CF911F910F9108951F93162F8823D4
:101DB00059F0861748F060E042E00E949D0EFC0159
:101DC000009721F0128F02C0E0E0F0E0CF011F91F8
:101DD0000895FC016115710511F461E070E08481E2
:101DE00095816817790710F080E0089577836683FE
:101DF00081E00895FC0164817581208131814081F9
:101E0000518182819381460F571F481B590B808156
:101E100091812817390789F79A01215030402617F8
:101E2000370710F0261B370BC9010895FC014481C8
:101E300055812281338180819181240F351F281B98
:101E4000390B2417350710F0241B350BC9010895F1
:101E5000FC01208131818281938140E082179307C8
:101E600009F441E0842F0895CF93DF93FC01868528
:101E700080FD03C0C0E0D0E002C0C2E0D0E0CF01EE
:101E80000E94FA0E20E0C817D90708F021E0822F3F
:101E9000DF91CF910895CF92DF92EF92FF920F934F
:101EA000CF93DF93EC016B018A859B85892B11F41D
:101EB00080E00FC08A859B8560E020E030E040E054
:101EC00050E000E0EE24FF240E94A2161B861A8632
:101ED00081E0DF91CF910F91FF90EF90DF90CF9055
:101EE0000895CF92DF92EF92FF920F93CF93DF93FB
:101EF000EC016B0188859985892B11F480E00FC076
:101F00008885998560E020E030E040E050E000E026
:101F1000EE24FF240E94A2161986188681E0DF9124
:101F2000CF910F91FF90EF90DF90CF900895AF92F7
:101F3000BF92CF92DF92EF92FF920F931F93CF93B6
:101F4000DF936C018B017A015901DC011496CD916C
:101F5000DC911597C21BD30B4C175D0708F4EA01FF
:101F6000F601248535852A0D3B1DC801B901AE0156
:101F70000E94A521CE15DF0580F498012C0F3D1F8E
:101F8000F701EC1BFD0BD6011C966C911C971D965E
:101F90007C91C901AF010E94A52195012E0D3F1D25
:101FA000F601848195812817390710F0281B390B19
:101FB000C901DF91CF911F910F91FF90EF90DF90BA
:101FC000CF90BF90AF900895AF92BF92CF92DF9223
:101FD000EF92FF920F931F93DF93CF9300D0CDB773
:101FE000DEB76C015B018A017901FC01208131813E
:101FF000868580FF14C0C601BE016F5F7F4F42E03F
:1020000050E00E94970F9C0149815A818EEF9FEF0B
:10201000E80EF91E0417150710F440E050E08A019D
:10202000E416F50608F487010115110541F0C60113
:10203000B501A8010E94970FF60191838083C80122
:102040000F900F90CF91DF911F910F91FF90EF9024
:10205000DF90CF90BF90AF900895AF92BF92CF9294
:10206000DF92EF92FF920F93CF93DF93EC01690120
:102070008E8580FD03C0A0E0B0E002C0A2E0B0E029
:10208000EC81FD812A813B81888199812E0F3F1F40
:10209000281B390B2E173F0710F02E1B3F0BA217E2
:1020A000B30718F0AA24BB2418C0CE010E94E40F85
:1020B0005C01009791F08A859B85892B71F08A8558
:1020C0009B8560E020E030E040E050E000E0EE245E
:1020D000FF240E94A2161B861A86C501DF91CF91AC
:1020E0000F91FF90EF90DF90CF90BF90AF90089549
:1020F000DF93CF9300D0CDB7DEB7FC01868580FF9C
:102100001FC0448155812281338180819181240FB8
:10211000351F281B390B2417350710F0241B350BEE
:102120002330310568F020813181CF01BE016F5F1E
:102130007F4F42E050E00E94970F29813A8102C010
:1021400020E030E0C9010F900F90CF91DF9108950A
:10215000AF92BF92CF92DF92EF92FF920F931F93B5
:10216000CF93DF937C016B018A015901DC01149646
:10217000CD91DC911597C21BD30B4C175D0708F46A
:10218000EA01F701248535852A0D3B1DC901B601F9
:10219000AE010E94A521C017D10780F4F801EC1B05
:1021A000FD0B96012C0F3D1FD7011C968C911C979F
:1021B0001D969C91B901AF010E94A5219501200FA8
:1021C000311FF701848195812817390710F0281BEA
:1021D000390BC901DF91CF911F910F91FF90EF90C3
:1021E000DF90CF90BF90AF900895CF92DF92EF92A3
:1021F000FF920F931F93DF93CF9300D0CDB7DEB73D
:102200007C016B015A834983DC011296ED91FC91AC
:1022100013971E968C9180FF11C02017310758F03C
:10222000C701BE016F5F7F4F42E050E09F010E94F7
:10223000A810FC010BC01A82198208C089819A81FA
:102240008217930708F49C013A83298349815A81B4
:102250004115510541F0C701B6019F010E94A81028
:10226000F7019383828389819A810F900F90CF9198
:10227000DF911F910F91FF90EF90DF90CF90089525
:10228000AF92BF92CF92DF92EF92FF920F931F9384
:10229000CF93DF93EC015B018A0169018E8580FD9C
:1022A00002C07A0105C082E0E82EF12CE40EF51E92
:1022B000CE010E94FA0E9C01CE01B501A801870152
:1022C0000E94F5105C01009731F14C815D812A81FB
:1022D0003B8188819981240F351F281B390B2417D6
:1022E000350710F0241B350B8E819F812817390785
:1022F00090F088859985892B71F08885998560E0B3
:1023000020E030E040E050E000E0EE24FF240E94B6
:10231000A21619861886C501DF91CF911F910F91E2
:10232000FF90EF90DF90CF90BF90AF9008956F92A5
:102330007F928F929F92AF92BF92CF92DF92EF9255
:10234000FF920F931F93CF93DF93EC014B013A0160
:1023500069018E8580FD03C0AA24BB2403C092E0DE
:10236000A92EB12C2C813D81C114D10491F10FB65D
:10237000F8940F920A811B8188819981020F131FA3
:10238000081B190B0217130710F0021B130BA016E2
:10239000B10648F080E090E060E00E9450180E9492
:1023A0008416998788870F900FBEA016B10620F17A
:1023B00080E040E050E060E070E000E010E020E00D
:1023C00030E0EE24FF240E949C1A198618862C8186
:1023D0003D810A811B8188819981020F131F081B8F
:1023E000190B0217130710F0021B130BA016B106EE
:1023F00018F0CC24DD241FC0CE01B401A301980144
:102400000E94E40F6C010097B1F00E946C138A8562
:102410009B85892B71F08A859B8560E020E030E008
:1024200040E050E000E0EE24FF240E949A181B8652
:102430001A860E946819C601DF91CF911F910F91F2
:10244000FF90EF90DF90CF90BF90AF909F908F90D4
:102450007F906F9008952F923F924F925F926F926C
:102460007F928F929F92AF92BF92CF92DF92EF9224
:10247000FF920F931F93DF93CF93CDB7DEB72797CC
:102480000FB6F894DEBF0FBECDBF5C017F836E83B5
:102490002A013D832C83FC01248135812150304069
:1024A000868580FF0BC042E0642E712C640C751C85
:1024B0002615370548F41D821C8206C024173507EF
:1024C00010F4390101C03A018C819D81892B09F4F6
:1024D0003DC08E010F5F1F4FC8010E9430161801CA
:1024E0000FB6F8940F92C5010E94FA0E4C018615A2
:1024F000970538F580E090E060E00E9450180E9457
:102500008416F501938782870F900FBECC80DD8003
:1025100080E040E050E060E070E000E010E020E0AB
:1025200030E0EE24FF240E949C1AF50113861286E7
:10253000C101BE016C5F7F4F0E944B16882381F260
:1025400002C00F900FBE9401892821F4C5010E949A
:10255000FA0E9C01C5016E817F81A20183010E9458
:10256000F5106C01009771F1F501448155812281CC
:10257000338180819181240F351F281B390B24174B
:10258000350710F0241B350BF5018681978128173C
:102590003907C0F00E946C13F50180859185892B65
:1025A00079F08085918560E020E030E040E050E007
:1025B00000E0EE24FF240E949A18F501118610868F
:1025C0000E946819C60127960FB6F894DEBF0FBEA9
:1025D000CDBFCF91DF911F910F91FF90EF90DF90D2
:1025E000CF90BF90AF909F908F907F906F905F90B3
:1025F0004F903F902F900895FC010FB6F8940F92E2
:1026000080859185892BC9F482859385892BA9F4CE
:1026100024853585448155816681778196858FE053
:10262000DF011D928A95E9F7358724875583448316
:1026300077836683968781E001C080E00F900FBEAC
:102640000895FC01868581FD04C0CF010E943108F8
:1026500008958FE0DF011D928A95E9F70895CF92E2
:10266000DF92FF920F931F93CF93DF936C018B0147
:10267000F42E6115710511F401E010E0C6014096D9
:10268000C816D90618F0A0E0B0E01DC00E944108AD
:10269000FC01DC010097B9F08FE0EF0119928A95F7
:1026A000E9F71F96B587A4871F970894C11CD11C12
:1026B000D582C48217830683168681E0F81619F442
:1026C0001E96FC921E97CD01DF91CF911F910F9125
:1026D000FF90DF90CF900895809186068F5F809362
:1026E000860608950FB6F8940F92209189063091CE
:1026F0008A060F900FBEC901089520918906309176
:102700008A06C9010895809190060895009721F4E2
:1027100080918406909185069C01275E3F4FC901F8
:102720000895EF92FF920F931F93CF93DF938091C1
:102730008606882309F0FBC00091890610918A065D
:102740000F5F1F4F10938A0600938906011511052C
:1027500061F5209102073091030780910407909161
:102760000507909303078093020730930507209392
:10277000040780918D068F5F80938D06E09102079C
:10278000F09103078081882319F48FEF9FEF09C030
:10279000E0910207F09103070580F681E02D80812A
:1027A000918190938C0680938B0680918B069091FB
:1027B0008C060817190708F4A2C0FF2439E0E32E9D
:1027C000E0910207F09103078081882319F48FEFCD
:1027D0009FEF0EC0E0910207F09103070580F6819C
:1027E000E02DC681D7818A819B810817190728F4BB
:1027F00090938C0680938B0683C0AA85BB854C8101
:102800005D818E819F81FA01958384832E813F8132
:10281000F90153834283BE016E5F7F4F11968D9104
:102820009C9112978617970721F412963C932E934A
:1028300011971B861A868C9181508C93AC89BD8927
:102840001097F9F02E853F8588899989F90195833C
:10285000848348895989FA01338322839E01245F46
:102860003F4F11968D919C9112978217930721F4F7
:1028700012965C934E9311971D8A1C8A8C918150FD
:102880008C939E8980918706891710F49093870610
:10289000892F90E0FC0123E0EE0FFF1F2A95E1F75E
:1028A000E80FF91FEA56F94FA181B281BD83AC83CD
:1028B00014968D919C9115979F838E831496ED911C
:1028C000FC9115977383628315967C936E9314978E
:1028D000EE89EE9DF0011124EA56F94FFB87EA8755
:1028E00080818F5F8083E0918406F09185069E89C8
:1028F0008689981708F464CFFF24F39461CFFF24EE
:10290000E0918406F0918506E68989E0E89FF00170
:102910001124EA56F94F8081823010F0FF24F3949D
:1029200080918806882369F0FF24F3940AC080917F
:102930008E0690918F06019690938F0680938E0657
:10294000FF248F2DDF91CF911F910F91FF90EF907A
:10295000089580918606882321F081E0809388067F
:102960000895109288062091870699E001C02150B1
:10297000299FD0011124AA56B94F8C918823B9F30D
:102980001196ED91FC9112970280F381E02D129641
:10299000FC93EE931197CD010396E817F90731F4F4
:1029A0008281938112969C938E9311971196ED914B
:1029B000FC91129786819781909385068093840677
:1029C000209387060895CF93DF93DC011596ED9150
:1029D000FC911697C681D781AC89BD894E855F85EC
:1029E00088899989FA019583848328893989F9012D
:1029F00053834283AE01445F5F4F11968D919C914A
:102A000012978417950721F412963C932E931197F1
:102A10001D8A1C8A8C9181508C9380918606882314
:102A200009F055C0AA85BB854C815D818E819F814F
:102A3000FA01958384832E813F81F9015383428378
:102A4000AE014E5F5F4F11968D919C911297841746
:102A5000950721F412963C932E9311971B861A86A4
:102A60008C9181508C939E8980918706891710F4F0
:102A700090938706892F90E0FC0163E0EE0FFF1F23
:102A80006A95E1F7E80FF91FEA56F94FA181B28183
:102A9000BD83AC8314968D919C9115979F838E83F3
:102AA0001496ED91FC9115975383428315965C9390
:102AB0004E931497EE8989E0E89FF0011124EA56BD
:102AC000F94FFB87EA8780818F5F80831FC0A091C9
:102AD0000707B0910807BF87AE8714968D919C9128
:102AE0001597998B888B1496ED91FC9115975383CC
:102AF000428315965C934E93149786E097E09D8BE6
:102B00008C8B809106078F5F80930607E091840687
:102B1000F09185069E898689891710F080E003C0B0
:102B200081E080938806DF91CF910895CF93DF9362
:102B3000DC01706811967C936E9316962D913C91F2
:102B400017971896CD91DC91199712966D917C91FB
:102B5000139714968D919C911597FB01958384830F
:102B600014964D915C911597FA0173836283898164
:102B70009A818A179B0711F45A83498319961C92EC
:102B80001E921897888181508883E901AA85BB85A8
:102B90004C815D818E819F81FA01958384830E80B3
:102BA000DF81C02D5B834A83A9014E5F5F4F119681
:102BB0008D919C9112978417950721F41296DC93BE
:102BC000CE931197E9011B861A868C9181508C93C4
:102BD0009E8980918706891710F490938706892F24
:102BE00090E0FC0173E0EE0FFF1F7A95E1F7E80F2C
:102BF000F91FEA56F94FA181B281F901B583A48387
:102C000014968D919C911597978386831496ED91D8
:102C1000FC9115975383428315965C934E931497BA
:102C2000D9015696EC91569789E0E89FF00111245E
:102C3000EA56F94F1B96FC93EE931A9780818F5FAB
:102C40008083E0918406F091850656969C91868952
:102C5000891718F481E080938806DF91CF91089559
:102C6000FC010FB6F8940F9280918D0680838091BD
:102C7000890690918A06928381830F900FBE0895F2
:102C8000FC0180918D0680838091890690918A064F
:102C9000928381830895DC01FB010FB6F8940F92B3
:102CA0004091890650918A0611962D913C91129778
:102CB00090918D068C91981719F042175307D0F414
:102CC000CA01821B930B9C018081918128173907CF
:102CD00088F4821B930B9183808380918D068C9363
:102CE0008091890690918A0612969C938E931197F3
:102CF00080E003C01182108281E00F900FBE089522
:102D000081E080938806089520918406309185069D
:102D1000C9010895E0918406F09185068485958522
:102D2000A0918406B0918506E0918406F091850615
:102D300046892AE030E0241B31091D963C932E93EE
:102D40001C970895CF92DF92EF92FF920F93CF934B
:102D5000DF93EC01E114F10489F0E62FF0E0EE0FCF
:102D6000FF1FEE0FFF1FE80FF91F87A990ADA1AD60
:102D7000B2ADF70180839183A283B383A62FB0E025
:102D8000FE01EA0FFB1F63AD82E083AF0230D1F09A
:102D9000033018F40130C9F505C0033051F1043097
:102DA000A1F523C0FD01EE0FFF1FEE0FFF1FEC0F7B
:102DB000FD1F87A990ADA1ADB2AD822B932BA42BA3
:102DC000B52B0EC0FD01EE0FFF1FEE0FFF1FEC0F26
:102DD000FD1F87A990ADA1ADB2AD0196A11DB11D9A
:102DE00087AB90AFA1AFB2AF10C0623011F480E0FA
:102DF0009DC0AA0FBB1FAA0FBB1FAC0FBD1FD7964C
:102E00002D933D934D935C93DA97613009F08DC01B
:102E100080918606882309F055C0AA85BB854C8120
:102E20005D818E819F81FA01958384832E813F810C
:102E3000F90153834283AE014E5F5F4F11968D912E
:102E40009C9112978417950721F412963C932E9328
:102E500011971B861A868C9181508C939E89809144
:102E60008706891710F490938706892F90E0FC015C
:102E7000A3E0EE0FFF1FAA95E1F7E80FF91FEA564E
:102E8000F94FA181B281BD83AC8314968D919C9141
:102E900015979F838E831496ED91FC91159753831C
:102EA000428315965C934E931497EE8989E0E89FD0
:102EB000F0011124EA56F94FFB87EA8780818F5F82
:102EC000808321C0A0910707B0910807BF87AE8714
:102ED00014968D919C911597998B888BCE010C96A9
:102EE0001496ED91FC9115979383828315969C938C
:102EF0008E93149786E097E09D8B8C8B80910607CC
:102F00008F5F80930607E0918406F09185069E8985
:102F10008689891750F4C114D10419F081E0F601B3
:102F2000808381E08093880601C081E0DF91CF91AA
:102F30000F91FF90EF90DF90CF900895CF93DF93A4
:102F4000EC01E62FBA01F0E0DC01AE0FBF1FDB960B
:102F50002C91DB9782E0DB968C93EE0FFF1FEE0F38
:102F6000FF1FEC0FFD1F87A990ADA1ADB2AD01967B
:102F7000A11DB11D87AB90AFA1AFB2AF213009F059
:102F80008CC080918606882309F055C0AA85BB8530
:102F90004C815D818E819F81FA01958384832E818E
:102FA0003F81F90153834283AE014E5F5F4F11961B
:102FB0008D919C9112978417950721F412963C935A
:102FC0002E9311971B861A868C9181508C939E8923
:102FD00080918706891710F490938706892F90E0D7
:102FE000FC01A3E0EE0FFF1FAA95E1F7E80FF91F20
:102FF000EA56F94FA181B281BD83AC8314968D91BD
:103000009C9115979F838E831496ED91FC91159753
:103010005383428315965C934E931497EE8989E00F
:10302000E89FF0011124EA56F94FFB87EA87808177
:103030008F5F808321C0A0910707B0910807BF87E9
:10304000AE8714968D919C911597998B888BCE01A4
:103050000C961496ED91FC911597938382831596A7
:103060009C938E93149786E097E09D8B8C8B809138
:1030700006078F5F80930607E0918406F09185062E
:103080009E898689891748F46115710519F081E0D8
:10309000FB01808381E080938806DF91CF910895C2
:1030A000009721F480918406909185060FB6F894DC
:1030B0000F92FC01E60FF11D83AD823011F080E02C
:1030C00002C013AE81E00F900FBE0895EF92FF9201
:1030D0000F931F9379018A01009721F48091840650
:1030E000909185060FB6F8940F92E62FF0E0EE0F60
:1030F000FF1FEE0FFF1FE80FF91F27A930AD41ADED
:1031000052AD87A990ADA1ADB2ADE094F094009519
:1031100010958E219F21A023B12387AB90AFA1AF43
:10312000B2AF0F900FBEB901CA011F910F91FF906E
:10313000EF900895EF92FF920F93CF93DF93EC01FE
:103140000FB6F8940F92E114F10489F0E62FF0E045
:10315000EE0FFF1FEE0FFF1FEC0FFD1F87A990ADB5
:10316000A1ADB2ADF70180839183A283B383A62F73
:10317000B0E0FE01EA0FFB1F63AD82E083AF0230D7
:10318000D1F0033018F40130C9F505C0033051F116
:103190000430A1F523C0FD01EE0FFF1FEE0FFF1F4E
:1031A000EC0FFD1F87A990ADA1ADB2AD822B932B83
:1031B000A42BB52B0EC0FD01EE0FFF1FEE0FFF1F5E
:1031C000EC0FFD1F87A990ADA1ADB2AD0196A11D79
:1031D000B11D87AB90AFA1AFB2AF10C0623011F498
:1031E00080E06EC0AA0FBB1FAA0FBB1FAC0FBD1F94
:1031F000D7962D933D934D935C93DA97613009F008
:103200005EC0AA85BB854C815D818E819F81FA015C
:10321000958384832E813F81F90153834283AE01DC
:103220004E5F5F4F11968D919C9112978417950771
:1032300021F412963C932E9311971B861A868C913B
:1032400081508C939E8980918706891710F4909302
:103250008706892F90E0FC0133E0EE0FFF1F3A95BF
:10326000E1F7E80FF91FEA56F94FA181B281BD835A
:10327000AC8314968D919C9115979F838E831496A1
:10328000ED91FC9115975383428315965C934E9371
:103290001497EE8989E0E89FF0011124EA56F94F6E
:1032A000FB87EA8780818F5F8083E0918406F091BD
:1032B00085069E898689891710F40E94E30981E0BA
:1032C0000F900FBEDF91CF910F91FF90EF90089577
:1032D0001F93CF93DF930FB6F8940F9280918606D9
:1032E00081508093860680918606882309F0C7C0A6
:1032F00080919006882309F4C2C0C0E0D0E079E054
:1033000061E084C0E0910B07F0910C07C681D78182
:10331000AC89BD892E853F8588899989F901958376
:10332000848348895989FA01338322839E01245F6B
:103330003F4F11968D919C9112978217930721F41C
:1033400012965C934E9311971D8A1C8A8C91815022
:103350008C93AA85BB854C815D818E819F81FA010A
:10336000958384832E813F81F90153834283AE018B
:103370004E5F5F4F11968D919C9112978417950720
:1033800021F412963C932E9311971B861A868C91EA
:1033900081508C939E8980918706891710F49093B1
:1033A0008706892F90E0FC0123E0EE0FFF1F2A958E
:1033B000E1F7E80FF91FEA56F94FA181B281BD8309
:1033C000AC8314968D919C9115979F838E83149650
:1033D000ED91FC9115975383428315965C934E9320
:1033E0001497EE89E79FF0011124EA56F94FFB8705
:1033F000EA8780818F5F8083E0918406F091850663
:103400009E898689981710F0609388068091060738
:10341000882309F077CFCD2BB9F0E0910207F09126
:1034200003078081882319F48FEF9FEF09C0E09193
:103430000207F09103070580F681E02D80819181DC
:1034400090938C0680938B06C0918E06D0918F0648
:10345000209769F011E00E949113882311F01093D6
:1034600088062197C1F710928F0610928E068091E0
:103470008806882321F00E94E30981E001C080E0F2
:103480000F900FBEDF91CF911F9108952091860676
:103490002F5F2093860620918E0630918F06280F8D
:1034A000391F30938F0620938E060E946819089565
:1034B0000F931F93CF93DF93EC0100918906109136
:1034C0008A06809184069091850602960E94DA0809
:1034D000C00FD11FE0918406F0918506D383C2838B
:1034E000C017D10768F48091040790910507609197
:1034F0008406709185066E5F7F4F0E94A80817C0F2
:10350000809102079091030760918406709185066F
:103510006E5F7F4F0E94A80880918B0690918C0669
:10352000C817D90720F4D0938C06C0938B06DF917F
:10353000CF911F910F9108958F929F92AF92BF925A
:10354000CF92DF92EF92FF920F931F93CF93DF936F
:1035500048015901E7010FB6F8940F92E0918406F3
:10356000F0918506E82EFF24EE0DFF1D83AD82301D
:1035700061F1E0918406F0918506C701880F991FDB
:10358000880F991FE80FF91F87A990ADA1ADB2ADC3
:10359000409550956095709584239523A623B72375
:1035A00087AB90AFA1AFB2AFE0918406F0918506F2
:1035B000EE0DFF1D81E083AFC114D10431F0C601CF
:1035C00061E00E94581A0E94E3090F900FBE0FB6E7
:1035D000F8940F92209799F0E0918406F091850677
:1035E000C701880F991F880F991FE80FF91F87A936
:1035F00090ADA1ADB2AD88839983AA83BB83E091DE
:103600008406F0918506EE0DFF1D83AD823011F02A
:1036100080E01CC0E0918406F0918506C701880F08
:10362000991F880F991FE80FF91F87A990ADA1ADC9
:10363000B2AD80949094A094B09488219921AA214D
:10364000BB2187AB90AFA1AFB2AF81E0E091840620
:10365000F0918506EE0DFF1D13AE0F900FBEDF91AA
:10366000CF911F910F91FF90EF90DF90CF90BF907F
:10367000AF909F908F9008951F93CF93DF93162F55
:103680000FB6F8940F92E0918406F0918506C82F4A
:10369000D0E0CE01880F991F880F991FE80FF91FFE
:1036A00087A990ADA1ADB2AD0097A105B10589F490
:1036B000E0918406F0918506EC0FFD1F81E083AF59
:1036C0004115510531F0CA0161E00E94581A0E946B
:1036D000E3090F900FBE0FB6F8940F92E0918406A5
:1036E000F0918506CE01880F991F880F991FE80F6A
:1036F000F91F27A930AD41AD52AD21153105410566
:103700005105F9F0112359F0E0918406F0918506F6
:10371000E80FF91F17AA10AE11AE12AE12C0E09159
:103720008406F09185062150304040405040E80F1B
:10373000F91F27AB30AF41AF52AF2F5F3F4F4F4F15
:103740005F4FE0918406F0918506EC0FFD1F13AEEC
:103750000F900FBEB901CA01DF91CF911F9108955B
:103760000F931F938C01CA01E0918406F0918506A6
:10377000706875876487F801A181B281E091840641
:10378000F0918506B787A687E0918406F0918506BB
:1037900014962D913C911597318B208B20918406A6
:1037A000309185061496ED91FC911597245F3F4F5B
:1037B000338322832091840630918506245F3F4F16
:1037C00015963C932E931497E0918406F09185060C
:1037D000158B048BF80120812F5F208361E00E940C
:1037E000581A1F910F9108959C01009769F08091DC
:1037F00086068F5F80938606C90160E00E94581A92
:103800000E946819882311F40E94E30908951F9308
:10381000FC01809186068F5F8093860680918906E1
:1038200090918A0620813181620F731F821793075E
:1038300028F46217730728F010E008C062177307B6
:1038400020F010E08617970708F411E07183608379
:10385000112339F09B01281B390BC90160E00E943C
:10386000581A0E946819882311F40E94E309812FD5
:103870001F9108950F931F938B016091840670919F
:103880008506645F7F4F0E94A808C80161E00E941E
:10389000581A1F910F910895F894109291060E9462
:1038A000820908950F931F9321C00FB6F8940F92C9
:1038B000E0911407F091150706811781C80102965F
:1038C0000E94DA0880919006815080939006809142
:1038D00094068150809394060F900FBEF80187895B
:1038E000908D0E943108C8010E9431088091940691
:1038F0008823D9F6809196068230C0F30E94E309AE
:10390000F5CF0F931F93CF93DF930FB6F8940F92D9
:10391000009711F0EC0104C0C0918406D091850697
:103920008E010E5F1F4FC8010E94DA088C899D89A5
:10393000892B21F0CE010C960E94DA088091950621
:103940008F5F809395068091840690918506C817B5
:10395000D90759F48FE097E0B8010E948908809157
:1039600094068F5F809394061CC0809190068150CE
:1039700080939006E0910207F091030780818823ED
:1039800019F48FEF9FEF09C0E0910207F091030750
:103990000580F681E02D8081918190938C06809343
:1039A0008B060F900FBE8091840690918506C817F4
:1039B000D90739F08F89988D0E943108CE010E9475
:1039C000310880919106882349F080918406909176
:1039D0008506C817D90711F40E94E309DF91CF913A
:1039E0001F910F9108954F925F926F927F928F92E5
:1039F0009F92AF92BF92CF92DF92EF92FF920F937E
:103A00001F93CF93DF932C014B015A013901CA0157
:103A10000E944108EC01009799F08CE390E00E942D
:103A200041086C01009749F0DC015896DC93CE9375
:103A300057978114910431F417C0CE010E943108C8
:103A40008FEFF2C0F401DC0190E0808159968C93F5
:103A500059978081882329F09F5F319611969E3176
:103A6000A1F7F60116AA03C0DC0159961C920A3090
:103A700008F009E0F601068B52E0852E912C8C0CA3
:103A80009D1CC4010E948508C6010C960E948508F1
:103A9000D6011996DC92CE9218978AE090E0801BAE
:103AA00091091D969C938E931C975396DC92CE920F
:103AB0005297F60117AA10AE11AE12AE13AE0894CB
:103AC000A108B108CE018A0D9B1DB201A3010E947D
:103AD0000509D6018D939C93E114F10419F0F701C7
:103AE000D182C0820FB6F8940F92809190068F5FBA
:103AF000809390068091840690918506892B79F5B4
:103B0000D0928506C0928406809190068130C9F5D6
:103B1000C6E9D6E0CE010E9475082996F6E0C03FBE
:103B2000DF07C1F740EFE42E46E0F42EC7010E9404
:103B3000750809EF16E0C8010E94750886E097E055
:103B40000E9475088FE097E00E947508F0920307C5
:103B5000E0920207109305070093040712C08091BA
:103B60009106882371F4E0918406F0918506968988
:103B7000D60156968C91891720F0D0928506C09276
:103B80008406809195068F5F80939506F60196894D
:103B900080918706891710F490938706D601569670
:103BA0008C9190E0FC0133E0EE0FFF1F3A95E1F7B6
:103BB000E80FF91FEA56F94FA181B281F601B583EA
:103BC000A48314968D919C91159797838683149660
:103BD000ED91FC9115979382828215969C928E921C
:103BE0001497D6015696EC91569789E0E89FF0011C
:103BF0001124EA56F94F1B96FC93EE931A97808195
:103C00008F5F80830F900FBE80919106882359F0BB
:103C1000E0918406F09185069689F60186899817C9
:103C200010F40E94E30981E0DF91CF911F910F9181
:103C3000FF90EF90DF90CF90BF90AF909F908F90CC
:103C40007F906F905F904F900895EF92FF920F9347
:103C500082E59CE160E670E045E550E020E030E080
:103C600000E0E2E9EE2EE6E0FE2E0E94F31C813039
:103C700081F4F8948FEF9FEF90938C0680938B06DE
:103C800081E08093910610928A06109289060E9424
:103C90004D098091D9000F91FF90EF9008950F93F7
:103CA0001F93CF93DF938C01EB01FC018081813066
:103CB000A9F488818F5F8883843181F480911B0708
:103CC00090911C0760E070E040E050E020E00E942E
:103CD000980D10921A071882F8011082DF91CF9187
:103CE0001F910F910895CF92DF92EF92FF921F9351
:103CF000DF93CF9300D00F92CDB7DEB7198252E099
:103D0000C52ED12CCC0EDD1E7E010894E11CF11CC9
:103D100080913F0790914007B6014AE050E00E9431
:103D2000ED0C813009F048C0809143079091440721
:103D3000B7014AE050E00E94ED0C182F8130E1F508
:103D4000898190E0FC01EE0FFF1FE80FF91FEE0FD5
:103D5000FF1FED5DF84F208131818A819B812817FB
:103D6000390711F50E94220485E690E00E94AA031B
:103D70000E94220485E790E00E94AA0381E066E0A9
:103D80000E940A04898190E0FC01EE0FFF1FE80FFA
:103D9000F91FEE0FFF1FEF5DF84F6481758180E022
:103DA00090E00E944C0306C00E94220486E890E046
:103DB0000E94AA031093180788E197E069E177E071
:103DC0000E944F1E88EC90E00E94F41BA1CF7F92CE
:103DD0008F929F92AF92BF92CF92DF92EF92FF921B
:103DE0000F931F93DF93CF93CDB7DEB727970FB60F
:103DF000F894DEBF0FBECDBFFE01339685E0DF0134
:103E00001D928A95E9F78FEF8B8300E077247394F6
:103E1000A8EEAA2EA3E0BA2E74E6872E6AE0962EAC
:103E20006E010894C11CD11C7F0180911F079091E5
:103E300020076AE070E00E944E0C813009F04DC00E
:103E40000E947E04182F8534C1F00530E8F58F3FBD
:103E500041F08AE20E940D03F701E00FF11D10838B
:103E60000F5F80911F079091200760E070E040E0B5
:103E700050E020E00E94980D30C0043029F58B817D
:103E800090E08A9D90018B9D300D9A9D300D1124FC
:103E90008C81889DC0011124280F391F8E81280F25
:103EA000311D8D81899DC0011124280F391F3A834E
:103EB000298380913F0790914007B6014AE050E086
:103EC00020E00E94980D08C00E94220487E990E03B
:103ED0000E94AA037092180700E088E197E069E168
:103EE00077E00E944F1E84E690E00E94F41B9DCF75
:103EF000CF92DF92EF92FF920F931F93DF93CF93B6
:103F000000D00F92CDB7DEB7198210E042E0C42E88
:103F1000D12CCC0EDD1E01E07E010894E11CF11CC9
:103F20008091410790914207B6014AE050E00E941B
:103F3000ED0C813009F049C04A815B81298128C09C
:103F4000822F8F5FE417F50711F529830E94220461
:103F500088EA90E00E94AA0381E066E00E940A04D9
:103F60008091430790914407B7014AE050E020E078
:103F70000E94980D80911F079091200760E070E0EB
:103F800040E050E020E00E94980D11E011C0282F81
:103F9000822F90E0FC01EE0FFF1FE80FF91FEE0FDC
:103FA000FF1FEF5DF84F0190F081E02D309741F653
:103FB0001982112311F011E008C00E94220484EB41
:103FC00090E00E94AA030093180788E197E069E156
:103FD00077E00E944F1E88EC90E00E94F41BA0CF77
:103FE0007F928F929F92AF92BF92CF92DF92EF9289
:103FF000FF920F931F93DF93CF93CDB7DEB7279731
:104000000FB6F894DEBF0FBECDBFFE01339685E03C
:10401000DF011D928A95E9F78FEF8B8300E077240B
:10402000739478EEA72E73E0B72E64E6862E5AE0DE
:10403000952E6E010894C11CD11C7F0180911D0733
:1040400090911E076AE070E00E944E0C813009F0EA
:1040500051C00E947E04182F8534E1F0053008F02D
:1040600040C08F3F59F0682F70E080E090E00E94E0
:104070004C03F701E00FF11D10830F5F80911D07C6
:1040800090911E0760E070E040E050E020E00E9468
:10409000980D30C0043029F58B8190E08A9D900105
:1040A0008B9D300D9A9D300D11248C81889DC0010F
:1040B0001124280F391F8E81280F311D8D81899D74
:1040C000C0011124280F391F3A83298380914107A9
:1040D00090914207B6014AE050E020E00E94980D1E
:1040E00008C00E94220487E990E00E94AA0370920F
:1040F000180700E088E197E069E177E00E944F1E31
:1041000084E690E00E94F41B99CFEF92FF921F93F8
:10411000DF93CF930F92CDB7DEB781E089837E0125
:104120000894E11CF11C80911B0790911C076AE028
:1041300070E00E944E0C182F813071F580911A07A3
:10414000882341F40E94220486EC90E00E94AA0396
:1041500010931A0780E060E0A7010E940E02898197
:10416000882379F40E9422048FEC90E00E94AA0335
:1041700081E066E00E940A0480911D0790911E076D
:1041800004C080911B0790911C0760E070E040E044
:1041900050E020E00E94980D84E690E00E94F41B1D
:1041A000C2CFEF92FF920F930E94B4000E942904A5
:1041B0000E94FB040E94A6068AED90E00E945F0622
:1041C00081E297E00E94930580E060E042E00E9477
:1041D000BF0081E060E043E00E949D0E90931C07C9
:1041E00080931B07009739F060E070E040E050E0FA
:1041F00020E00E94980D85E061E00E94D50E90932A
:104200001E0780931D0785E061E00E94D50E909304
:10421000200780931F0781E062E040E00E949D0E2E
:10422000909342078093410781E062E040E00E9462
:104230009D0E9093400780933F0781E061E040E04E
:104240000E949D0E909344078093430785E890E277
:1042500060E070E046E950E020E030E005E0EE2468
:10426000FF240E94F31C80EF9FE160E070E046E9CC
:1042700050E020E030E001E00E94F31C88E79FE17D
:1042800060E070E046E950E020E030E00E94F31C7E
:1042900087EE9EE160E070E046E950E020E030E02B
:1042A0000E94F31C83E79EE160E070E046E950E085
:1042B00020E030E00E94F31C80911D0790911E07C2
:1042C0006AE070E00E944E0C80911F0790912007D9
:1042D0006AE070E00E944E0C0E94251EFFCFAA1BD0
:1042E000BB1B51E107C0AA1FBB1FA617B70710F0E1
:1042F000A61BB70B881F991F5A95A9F78095909513
:10430000BC01CD010895A1E21A2EAA1BBB1BFD0121
:104310000DC0AA1FBB1FEE1FFF1FA217B307E407A4
:10432000F50720F0A21BB30BE40BF50B661F771FFC
:10433000881F991F1A9469F76095709580959095DC
:104340009B01AC01BD01CF010895FB01DC0102C05E
:1043500001900D9241505040D8F70895DC0101C002
:0E4360006D9341505040E0F70895F894FFCF60
:10436E0049444C4500506C656173652077616974F2
:10437E002E2E2E2E00596F75722062616C616E6347
:10438E00652069733A0050617373204953204E4F74
:10439E005456414C494400494E56414C49442045DF
:1043AE004E5452592E2E2E00456E74657220506159
:1043BE0073733A004944204953204E4F54205641BE
:1043CE004C49442E2E004E54492042616E6B0045DE
:1043DE006E7465722049443A0009D2042C05881384
:1043EE00D411E80950C39221D21110278E0C9421BA
:1043FE007017000000000000070809FF040506FF03
:08440E00010203FF45FFFFFF5F
:00000001FF
